:020000040800F2
:10000000E8180020010100084D0100084F01000818
:1000100053010008570100085B01000800000000C0
:100020000000000000000000000000005F01000868
:100030006101000800000000273B0008650100087E
:100040001B0100081B0100081B0100081B01000820
:100050001B0100081B010008750100081B010008B6
:100060001B0100081B0100081B0100081B01000800
:100070001B0100081B0100081B0100081B010008F0
:100080001B0100081B0100081B0100081B010008E0
:100090001B0100081B0100081B0100081B010008D0
:1000A0001B0100081B0100081B0100081B010008C0
:1000B0001B0100081B0100081B0100081B010008B0
:1000C0001B0100081B0100081B0100081B010008A0
:1000D0001B0100081B0100081B0100081B01000890
:1000E0001B0100081B0100081B010008DFF80CD0F1
:1000F00003F066FE0048004725010008E8180020CC
:100100000648804706480047FEE7FEE7FEE7FEE7B1
:10011000FEE7FEE7FEE7FEE7FEE7FEE7ED15000877
:10012000ED00000810B501F08FFC02F07FF8042309
:10013000044A0021044803F078F802F090F9002006
:1001400010BD0000B801002029190008704700BF49
:10015000FEE700BFFEE700BFFEE700BFFEE7704717
:100160007047704710B502F073F802F0AFF902F073
:100170008AF810BD10B5012001F0B8F970B102F095
:1001800067F80748006802F014FF0648006802F0AC
:1001900010FF012001F0BBF902F075F810BD00005E
:1001A000040000200800002010B50446C74884421F
:1001B00008D10121042000F01BFB0021042000F0E5
:1001C00017FB46E0C248844208D10121082000F014
:1001D0000FFB0021082000F00BFB3AE0BD488442F1
:1001E00008D10121102000F003FB0021102000F0B5
:1001F000FFFA2EE0B848844208D10121202000F007
:10020000F7FA0021202000F0F3FA22E0B3488442FC
:1002100008D10121402000F0EBFA0021402000F03D
:10022000E7FA16E0AE48844208D10121802000F0B0
:10023000DFFA0021802000F0DBFA0AE0A9488442BE
:1002400007D10121801500F0D3FA0021A01500F09C
:10025000CFFA10BD10B50121084600F0C9FA0021FF
:10026000012000F0C5FA10BDF0B5002200230024E3
:1002700000250026002791F803C00CF00F0291F82A
:1002800003C01CF0100F03D091F802C04CEA020228
:10029000B1F800C01CF0FF0F31D0066800242BE03D
:1002A0004FF0010C0CFA04F5B1F800C00CEA05039C
:1002B000AB4220D1A5004FF00F0C0CFA05F7BE435E
:1002C00002FA05FC4CEA060691F803C0BCF1280FBF
:1002D00006D14FF0010C0CFA04FCC0F814C00AE07F
:1002E00091F803C0BCF1480F05D14FF0010C0CFA96
:1002F00004FCC0F810C0641C082CD1D30660B1F80F
:1003000000C0BCF1FF0F34DD466800242EE004F18C
:10031000080C4FF0010E0EFA0CF5B1F800C00CEA13
:100320000503AB4221D1A5004FF00F0C0CFA05F7E5
:10033000BE4302FA05FC4CEA060691F803C0BCF184
:10034000280F05D104F1080C0EFA0CFEC0F814E0D9
:1003500091F803C0BCF1480F07D104F1080C4FF02D
:10036000010E0EFA0CFEC0F810E0641C082CCED36F
:100370004660F0BD4FF6FF710180022181700421BB
:10038000C17070470246002093680B4201D00120E3
:1003900000E0002070470146886880B2704702463E
:1003A0000020D3680B4201D0012000E000207047FC
:1003B0000146C86880B2704701617047416170476B
:1003C0000AB1016100E041617047C16070474FF4BC
:1003D00080320A43826181618261826982697047E9
:1003E0000022414B1A684FF680731A4042EA00120D
:1003F0000A433D4B1A6070473C49C8617047F0B5ED
:10040000002200230024002500F00046B6F1004F32
:1004100002D1354EF46901E0334E7468C0F30345F0
:1004200082B200F44016B6F5401F08D124F0706483
:100430002D4E766826F070662B4F7E6012E000F439
:100440008016B6F5801F06D1032606FA05F39C43F5
:1004500044F0706406E0460D360102FA06F6B44335
:1004600044F0706421B1460D360102FA06F63443B9
:1004700000F00046B6F1004F02D11B4EF46101E0DE
:10048000194E7460F0BD30B500228B071C0F0F238E
:1004900003FA04F2144B08338C1053F824409443AD
:1004A0008D1043F825408C1053F824308C07240F0E
:1004B00000FA04F423430C4C08348D1044F8253022
:1004C00030BD0A49DC310860704700000008014077
:1004D000000C0140001001400014014000180140D0
:1004E000001C0140002001400000014000002042AB
:1004F000DB48006840F00100D949086008464068C0
:10050000D8490840D649486008460068D64908409E
:10051000D34908600846006820F480200860084637
:10052000406820F4FE0048604FF41F008860704768
:10053000CB49096821F48031C94A11601146096824
:1005400021F480211160B0F5803F03D0B0F5802FF9
:100550000ED106E0C249096841F48031C04A1160F9
:1005600007E0BF49096841F4A021BD4A116000E0DD
:1005700000BF00BF704710B50146002200230020D5
:100580004A11012A02D1B64C236806E0022A02D1A0
:10059000B34C236A01E0B24C636A01F01F020124EC
:1005A00094401C4201D0012000E0002010BD70B535
:1005B00000240025002600BF3120FFF7DCFF06469F
:1005C000641CB4F5A06F01D0002EF5D03120FFF7E8
:1005D000D2FF08B1012500E00025284670BD0021AA
:1005E0009F4A116821F0F80141EAC001116070478B
:1005F0009E49086070470022994B5A6822F47C1289
:1006000040EA01031A43964B5A60704797490866BF
:1006100070470021924A516821F003010143516063
:1006200070478F48406800F00C00704700218C4AEA
:10063000516821F0F0010143516070470021884A60
:10064000516821F4E0610143516070470021844A00
:10065000516821F4605141EAC0015160704729B1ED
:100660007F4A527A02437E4B5A7206E07C4A527AA3
:10067000C343DBB21A407A4B5A7270477B49D83178
:10068000086070470021764A516821F440410143D7
:10069000516070470021724A20321170704A82F80E
:1006A0002010012802D004280AD104E001216C4A5C
:1006B0002032117005E00521694A2032117000E0F6
:1006C00000BF00BF70476A49086070476449096A03
:1006D0000143634A116270476549443908607047B5
:1006E00030B500210022002300245D4D6D6805F027
:1006F0000C0121B1042905D0082923D105E05D4D65
:10070000056022E05B4D05601FE0554D6D6805F406
:100710007012534D6D6805F48033022505EB92424B
:100720001BB9554D554305600BE04D4D6D6815F4F3
:10073000003F03D0504D5543056002E04D4D5543F9
:10074000056002E04B4D056000BF00BF444D6D6881
:1007500005F0F0010909494D6C5C0568E54045600C
:100760003F4D6D6805F4E061090A444D6C5C4568D5
:10077000E54085603A4D6D6805F46051C90A3F4D0A
:100780006C5C4568E540C560354D6D6805F44041D9
:10079000890B3A4D10356C5CC568B5FBF4F5056105
:1007A00030BD29B12E4A526902432D4B5A6104E0F3
:1007B0002B4A526982432A4B5A61704729B1284A11
:1007C00092690243264B9A6104E0254A926982436A
:1007D000234B9A61704729B1214AD2690243204BC9
:1007E000DA6104E01E4AD26982431D4BDA61704728
:1007F00029B11B4AD2680243194BDA6004E0184A57
:10080000D2688243164BDA60704729B1144A1269E4
:100810000243134B1A6104E0114A12698243104BE0
:100820001A61704712494039086070470F49C8641F
:1008300070470B49C87170470948406A40F08070A2
:1008400007494862704701460020054A92680A42FB
:1008500001D0012000E000207047014988727047F4
:10086000001002400000FFF8FFFFF6FE00004242C9
:100870008004424200127A0000093D000C00002072
:1008800010B50446FB48844209D101218803FFF7D3
:10089000AFFF00214FF48040FFF7AAFF32E0F64897
:1008A000844209D101214804FFF7AFFF00214FF432
:1008B0000030FFF7AAFF25E0F048844209D101216A
:1008C0008804FFF7A2FF00214FF48020FFF79DFF6F
:1008D00018E0EB48844209D10121C804FFF795FFD5
:1008E00000214FF40020FFF790FF0BE0E548844221
:1008F00008D101210805FFF788FF00214FF480107F
:10090000FFF783FF10BD2DE9F04786B004460D4682
:100910000026002700BFB146B246A88900B100BF3B
:10092000A246268A4CF6FF700640E88806432682D7
:10093000A6894EF6F3100640A888298908436989DC
:1009400008430643A681A68A4FF6FF400640A889C1
:100950000643A68201A8FFF7C3FE5446C548824558
:1009600001D1049F00E0039FA08910F4004F08D03C
:1009700007EBC70000EB071029684900B0FBF1F84E
:1009800007E007EBC70000EB071029688900B0FB00
:10099000F1F86420B8FBF0F006013009642101FB96
:1009A0001089A08910F4004F09D0322101EBC90051
:1009B0006421B0FBF1F000F00700064308E03221AB
:1009C00001EB09106421B0FBF1F000F00F000643C9
:1009D000268106B0BDE8F0874FF416510160002172
:1009E0008180C18001810C2141810021818170477A
:1009F00010B50022028A4FF2FF031A400B884C8880
:100A000023438C882343CC8823431A43028210BD9E
:100A10000021018041808180C180704721B182899D
:100A200042F40052828104E082894DF6FF731A403D
:100A300082817047F0B50024002500260023A1F52F
:100A400010676A3F00D100BF0346C1F3421401F0B2
:100A50001F05012707FA05F6012C01D10C3304E02C
:100A6000022C01D1103300E014331AB11F68374350
:100A70001F6002E01F68B7431F60F0BD10B51AB1D8
:100A8000838A0B43838204E0838ACC43A4B223404D
:100A9000838210BD028A4FF6F0731A400282028AE6
:100AA0000A430282704782894FF2FF731A408281A3
:100AB00082890A438281704721B1828942F0020211
:100AC000828104E082894FF6FD731A40828170476B
:100AD000028A4FF6DF731A400282028A0A430282B8
:100AE000704721B1028A42F48042028204E0028A05
:100AF0004BF6FF731A4002827047C1F308028280EE
:100B0000704701468888C0F308007047818941F02A
:100B1000010181817047028BD2B20283028B42EACB
:100B2000012202837047028B02F47F420283028B10
:100B30000A430283704721B1828A42F020028282F6
:100B400004E0828A4FF6DF731A408282704721B137
:100B5000828A42F01002828204E0828A4FF6EF73AA
:100B60001A408282704721B1828A42F00802828252
:100B700004E0828A4FF6F7731A408282704721B1EF
:100B8000828942F40042828103E08289C2F30E022C
:100B90008281704721B1828A42F40062828204E03D
:100BA000828A4FF2FF731A4082827047828A4FF620
:100BB000FB731A408282828A0A438282704721B183
:100BC000828A42F00202828204E0828A4FF6FD733A
:100BD0001A408282704702460020B1F5007F00D1A2
:100BE00000BF13880B4201D0012000E000207047B5
:100BF00001F40072B2F5007F00D100BFCA43028049
:100C0000704770B502460023002400250020A1F59E
:100C100010666A3E00D100BFC1F3421501F01F0407
:100C2000012606FA04F4012D02D19689344006E02B
:100C3000022D02D1168A344001E0968A34400B120C
:100C4000012606FA03F31688334014B10BB10120D4
:100C500000E0002070BD10B500220023A1F5106453
:100C60006A3C00D100BF0A1201249440A3B2DC43C5
:100C7000048010BD0038014000440040004800409E
:100C8000004C00400050004001684FF6FE721140D9
:100C900001600021016041608160C1608F4988422C
:100CA00008D18E490839496841F00F018B4A083A4A
:100CB000516090E089491431884208D18749083948
:100CC000496841F0F001854A083A516083E0834960
:100CD0002831884208D181490839496841F4706156
:100CE0007E4A083A516076E07C493C31884208D11E
:100CF0007A490839496841F47041784A083A5160A4
:100D000069E076495031884208D174490839496808
:100D100041F47021714A083A51605CE06F496431D6
:100D2000884208D16D490839496841F470016B4A1D
:100D3000083A51604FE069497831884208D16749E3
:100D40000839496841F07061644A083A516042E0EC
:100D50006349884208D1011F096841F00F015F4AC9
:100D6000083AC2F8041436E05D491431884209D1CA
:100D70005B49091F096841F0F001584A083AC2F876
:100D8000041428E056492831884209D15449091FE2
:100D9000096841F47061514A083AC2F804141AE033
:100DA0004F493C31884209D14D49091F096841F436
:100DB00070414A4A083AC2F804140CE048495031DC
:100DC000884208D14649091F096841F47021434A05
:100DD000083AC2F80414704710B50022026847F6BA
:100DE000F0739A430C6A8B6823430C6923434C6964
:100DF00023438C692343CC6923434C6A23438C6A85
:100E000023431A430260CB6843600B6883604B68DE
:100E1000C36010BD0021016041608160C16001615B
:100E200041618161C161016241628162704721B1AA
:100E3000026842F00102026004E002684FF6FE73AD
:100E40001A40026070471AB103680B43036002E066
:100E500003688B43036070474160704701464868F0
:100E600080B2704702460020002112F0805F03D05C
:100E70001B4B083B196802E0184B083B19681142EC
:100E800001D0012000E00020704710F0805F03D007
:100E90001349091F086002E010490839486070478B
:100EA00002460020002112F0805F03D00C4B083B6B
:100EB000196802E0094B083B1968114201D0012072
:100EC00000E00020704710F0805F03D00449091F44
:100ED000086002E001490839486070470800024094
:100EE0000804024010B50446F748844208D10121A5
:100EF0004015FFF77DFC00216015FFF779FC17E036
:100F0000F248844208D101210015FFF771FC00214D
:100F10002015FFF76DFC0BE0ED48844208D101215C
:100F2000C803FFF765FC00214FF40040FFF760FCA9
:100F300010BD30B5002200234268E64C22400D79F6
:100F40000C6844EA0524224342608268E24C224055
:100F5000D1E902542C434D7944EA4504224382608E
:100F6000C26A22F470020C7C641EE4B2234342EA9B
:100F70000352C26230BD0021016001714171816084
:100F8000C16001210174704721B1826842F0010201
:100F9000826003E0826822F001028260704721B122
:100FA000826842F48072826003E0826822F4807278
:100FB0008260704710B50023CBB21AB144681C435D
:100FC000446002E044689C43446010BD816841F085
:100FD000080181607047014600208A6812F0080FFE
:100FE00001D0012000E000207047816841F0040139
:100FF00081607047014600208A6812F0040F01D01A
:10100000012000E00020704721B1826842F4A00274
:10101000826003E0826822F4A00282607047014689
:1010200000208A6812F4800F01D0012000E0002027
:10103000704710B500220023426822F460424B1E24
:1010400042EA4332426010BD21B1426842F400627C
:10105000426003E0426822F4006242607047F0B5EB
:1010600000240025092911DDC468A1F10A0606EB58
:101070004607072606FA07F5AC43A1F10A0606EB78
:10108000460603FA06F52C43C4600CE0046901EB44
:101090004107072606FA07F5AC4301EB410603FAC0
:1010A00006F52C430461072A0FDA446B561E06EB43
:1010B00086071F2606FA07F5AC43561E06EB860682
:1010C00001FA06F52C43446322E00D2A0FDA046B83
:1010D000D61F06EB86071F2606FA07F5AC43D61F78
:1010E00006EB860601FA06F52C43046310E0C46A99
:1010F000A2F10D0606EB86071F2606FA07F5AC439C
:10110000A2F10D0606EB860601FA06F52C43C46231
:10111000F0BD21B1826842F48012826003E08268EF
:1011200022F48012826070470146C86C80B270471A
:1011300065484C300068704721B1426842F48062D3
:10114000426003E0426822F480624260704721B14D
:10115000426842F48052426003E0426822F48052C6
:10116000426070470022826822F4E0420A438260B3
:10117000704721B1826842F40042826003E08268D5
:1011800022F400428260704721B1826842F4021268
:10119000826003E0826822F4021282607047014696
:1011A00000208A6812F4001F01D0012000E0002016
:1011B0007047F0B5002400250026092911DDC46818
:1011C000A1F10A0707EB470C072707FA0CF5AC4318
:1011D000A1F10A0707EB470703FA07F52C43C460A0
:1011E0000CE0046901EB410C072707FA0CF5AC434E
:1011F00001EB410703FA07F52C430461846BC4F348
:101200000156D71C06F1010CA7EB0C0707EB870C66
:101210001F2707FA0CF5AC43D71C06F1010CA7EB0E
:101220000C0707EB870701FA07F52C438463F0BD31
:1012300010B500220023826B22F440124B1E42EABA
:101240000352826310BD10B50023034618460B44B9
:101250001A6010BD0246002313461A4601F1280009
:101260000344186880B27047002242681B4B1A4042
:101270000A434260704741628262704700224268BE
:1012800022F01F020A434260704740B10E49083104
:10129000096841F40001124AC2F8081407E00A493B
:1012A0000831096821F400010D4AC2F8081470479A
:1012B0000246002013680B4201D0012000E000200C
:1012C0007047CA4302607047002401400028014073
:1012D000003C0140FFFEF0FFFDF7F1FFFFFD3FFF87
:1012E0000020014070B502460020002300240B12AC
:1012F0005568CEB205EA060415681D4202D00CB14D
:10130000012000E0002070BD00220A12D3430360D8
:101310007047000032490143324A1160704770B58E
:10132000002100230F22C4780CB32E4C246804F44F
:10133000E064C4F5E064210AC1F10403CA404478C2
:1013400004FA03F18478144021430901264C0678FD
:10135000A155047804F01F050124AC4005786D11F7
:101360004FF0E02606EB8505C5F8004109E004785A
:1013700004F01F040125A5401C4C0678761144F8A2
:10138000265070BD1A4A0A400243164B1B1F1A60B2
:10139000704741B1134A121D126802434FF0E02317
:1013A000C3F8102D07E00F4A121D126882434FF058
:1013B000E023C3F8102D7047042808D14FF0E02136
:1013C000096941F004014FF0E022116107E04FF09C
:1013D000E021096921F004014FF0E022116170471A
:1013E0000000FA050CED00E000E400E080E100E020
:1013F00080FFFF1F0020484908604849C1F80404E5
:10140000454908310860091D0860454842491431C2
:1014100008607047002140498279002A40D03F4A45
:10142000D2F8002403689A433C4BC3F800241A46C0
:10143000D2F8042403689A430B1D1A600279114400
:101440000A6803681A430A60344AD2F80824036819
:101450009A43324BC3F808241A46D2F80C24036886
:101460009A432D4B0C331A604279102A10D12B4A23
:10147000D2F8082403681A43284BC3F808241A46F4
:10148000D2F80C2403681A43244BC3F80C240DE053
:101490002149427911440A6803681A430A6005E049
:1014A000027911440A6803689A430A607047002170
:1014B000016001710C214171002181717047164951
:1014C000103109680143154AC2F8101470470146EB
:1014D0000020114A143212680A4201D0012000E0B3
:1014E000002070470C491431086070470146002005
:1014F0000022094B1B6803EA0102084BD3F814349D
:101500000B4202D00AB1012000E0002070470249DE
:1015100014310860704700000004014000000140E1
:10152000FFFF0F0000200021674A126842F480325A
:10153000654B1A6000BF644A126802F40031401C17
:1015400011B9B0F5A06FF6D15F4A126812F4003FEE
:1015500001D0012100E00021012942D15B4A12683B
:1015600042F01002594B1A601A46126822F0030228
:101570001A601A46126842F002021A60524A526811
:10158000514B5A601A4652685A601A46526842F4E1
:1015900080625A601A46526822F47C125A601A46D7
:1015A000526842F4E8125A601A46126842F0807299
:1015B0001A6000BF444A126812F0007FFAD0424A13
:1015C000526822F00302404B5A601A46526842F0B9
:1015D00002025A6000BF3C4A526802F00C02082A1C
:1015E000F9D1704710B5FFF79DFF10BD10B5364813
:1015F000006840F0010034490860084640683449FA
:1016000008403149486008460068324908402E4980
:1016100008600846006820F480200860084640689A
:1016200020F4FE0048604FF41F008860FFF7DAFFE7
:101630004FF000602849086010BD10B5002000215F
:101640000022214B5B6803F00C0020B1042806D077
:10165000082828D107E0214B214C236027E01F4BAD
:101660001F4C236023E0184B5B6803F47011164B8A
:101670005B6803F48032022303EB914122B9194BDA
:101680004B43174C23600DE00F4B5B6813F4003F96
:1016900004D0144B4B43124C236003E00F4B4B43DD
:1016A0000F4C236003E00D4B0D4C236000BF00BFC7
:1016B000054B5B68C3F303130B4CE05C084B1B68E2
:1016C000C340074C236010BD0010024000200240C0
:1016D0000000FFF8FFFFF6FE08ED00E000127A00C0
:1016E0002000002000093D002400002008B518E07B
:1016F0006A460021AD48006801F09DFBAC480068D7
:10170000AC4909780844AA490860AB48006801F070
:1017100039FA4FF4FA7300221146104602F01DF90F
:1017200000BFE5E710B506E04FF4FA73002211465A
:10173000104602F012F9F7E770B518E09F480088EC
:1017400002F0E1FA06464FF08B4102F0A6FA054698
:101750009B4902F06FFA044602F0DAFA95490870E4
:101760004FF4FA7300221146104602F0F6F8E5E74E
:101770002DE9F04185E08E4800684FF47A71B0FBA6
:10178000F1F0C7B28A480068B0FBF1F201FB120029
:101790006421B0FBF1F0C4B2854800684FF47A715F
:1017A000B0FBF1F201FB12006421B0FBF1F201FB8E
:1017B00012000A21B0FBF1F0C5B27D4800684FF479
:1017C0007A71B0FBF1F201FB12006421B0FBF1F27F
:1017D00001FB12000A21B0FBF1F201FB1200C6B2BC
:1017E0004FF470417748FEF7E7FD4FF4805175489C
:1017F000FEF7E4FD7449885D00F06FFA03230022D0
:101800001146104602F0A9F84FF470416D48FEF7FA
:10181000D3FD4FF400516B48FEF7D0FD6A49485D97
:1018200000F05BFA032300221146104602F095F8FF
:101830004FF470416348FEF7BFFD4FF480416148AB
:10184000FEF7BCFD6049085D00F047FA0323002263
:101850001146104602F081F84FF470415948FEF7E6
:10186000ABFD4FF400415748FEF7A8FD5649C85D4F
:1018700000F033FA032300221146104602F06DF8FF
:1018800000BF78E71CB518E001AA00214F480068A6
:1018900001F0D1FA6A4600214748006801F0A6F835
:1018A000047821464AA002F09DFA4FF4FA73002210
:1018B0001146104602F051F800BFE5E710B532E0DE
:1018C00000BF10214548FEF779FD4FF4FA7300225E
:1018D0001146104602F041F800BF10213F48FEF7C4
:1018E0006BFD00BF20213D48FEF768FD4FF4FA7301
:1018F00000221146104602F030F800BF2021374880
:10190000FEF75AFD00BF40213448FEF757FD4FF463
:10191000FA7300221146104602F01FF800BF402162
:101920002E48FEF749FDCBE710B5002000F0C4FFBC
:1019300021490860002001F0E4F9244908600020F2
:1019400001F0DFF9194908600523254A0021AFF2AB
:10195000930001F06AFC0623224A0021AFF2DB006B
:1019600001F063FC0723204A0021AFF2FB1001F0D5
:101970005CFC08231D4A0021AFF2432001F055FC16
:1019800003231B4A0021AFF2632001F04EFC092320
:10199000184A0021AFF2AB2001F047FC05E00A2312
:1019A00000221146104601F0D8FFF8E70800002099
:1019B0003400002038000020000000203A00002001
:1019C00000002041000C0140703F0008040000208E
:1019D0002068656C6C6F3A202564000000080140A7
:1019E000F80200203804002078050020B806002006
:1019F000F8070020380900201B4909684FF47A7263
:101A0000B1FBF2F0B0F1807F00D31CE020F07F4109
:101A1000491E4FF0E022516100BF5117002905DA3D
:101A20000F210901114A0B23D15404E00F210901B0
:101A30000F4A5317D15400BF00214FF0E0229161AB
:101A40000721116100BF704710B5FFF7CFFDFFF709
:101A5000D3FF00F00FF800F027F800F025F900F0B0
:101A6000DFF900F0FFF910BD2000002018ED00E0C4
:101A700000E400E008B501210420FEF79FFEF020FD
:101A8000ADF8000010208DF8030003208DF802004F
:101A900069460448FEF7E8FBF0210248FEF78CFC9B
:101AA00008BD00000008014000B585B0012144F2E6
:101AB0000400FEF783FE4FF40070ADF8100018200C
:101AC0008DF8130003208DF8120004A97448FEF766
:101AD000CBFB4FF48060ADF8100004208DF81300AC
:101AE00004A96F48FEF7C0FB4FF4E13000900020DE
:101AF000ADF80400ADF80600ADF80800ADF80C0034
:101B00000C20ADF80A0069466648FEF7FCFE01218C
:101B10006448FEF783FF05B000BD70B504460D466E
:101B2000E1B26048FEF7E9FF00BF40215D48FFF7E2
:101B300052F80128F9D1204670BDF0B503460027C0
:101B40000E460A2A03D0002030700846F0BD33B993
:101B5000302006F8010B002030700846F6E7002B15
:101B600003DA2D2006F8010B5B4242F210740DE0FF
:101B700093FBF4F505B937B105F1300006F8010B18
:101B800005FB143301270A2094FBF0F4002CEFDC52
:101B9000002030700846D9E70FB470B586B004460F
:101BA0000CA8019073E00B9800785C281CD10B986E
:101BB000401C0B9000786E2809D072280FD10D219F
:101BC0002046FEF79AFF0B98401C0B900BE00A2171
:101BD0002046FEF792FF0B98401C0B9003E00B98F9
:101BE000401C0B9000BF4BE00B980078252840D19B
:101BF0000B98401C0B900078642818D0732833D1C0
:101C0000019820C801900BE029782046FEF775FF67
:101C100000BF40212046FEF7DEFF0028F9D06D1CF2
:101C200028780028F0D10B98401C0B9020E00198F8
:101C300040C801900A2202A93046FFF77EFF02AD9C
:101C40000BE029782046FEF758FF00BF40212046D0
:101C5000FEF7C1FF0028F9D06D1C28780028F0D1CC
:101C60000B98401C0B9003E00B98401C0B9000BF9E
:101C700006E00B9810F8011B0B902046FEF73DFF85
:101C800000BF40212046FEF7A6FF0028F9D00B98A0
:101C90000078002887D106B070BC5DF814FB000006
:101CA000000801400038014008B501210820FEF776
:101CB00085FD4FF47C40ADF8000003208DF8020054
:101CC00010208DF8030069461548FEF7CDFA4FF451
:101CD00070411348FEF770FB08BD70B5044600253F
:101CE0001AE04FF400610E48FEF768FB14F0010F94
:101CF00005D04FF480610A48FEF760FB04E04FF422
:101D000080610748FEF758FB4FF400610448FEF776
:101D100053FB6410681CC5B2082DE2DB70BD0000E7
:101D2000000C014008B501210846FEF73AFD0121EB
:101D30004FF40470FEF742FD8020ADF80000002053
:101D40008DF8030069463948FEF78EFA08BD00B5E4
:101D500091B03748FEF798FF36480690364807900E
:101D6000002008900120099000200A900B904FF469
:101D700080700C9080000D9020200E9000020F903B
:101D80000020109006A92A48FFF726F801212848CC
:101D9000FFF74DF8002001908DF8080001208DF824
:101DA00009004FF4602003900020049001208DF87A
:101DB000140001A91F484C38FFF7BBF84FF440400E
:101DC000FEF760FC0523012207211A484C38FFF773
:101DD00046F9012117484C38FFF7E1F80121154871
:101DE0004C38FFF7D1F813484C38FFF7EFF800BF35
:101DF00010484C38FFF7EFF80028F9D10D484C385F
:101E0000FFF7F3F800BF0B484C38FFF7F3F8002852
:101E1000F9D1012107484C38FFF7F6F811B000BDA1
:101E200010B5FFF77FFFFFF792FF10BD00080140DC
:101E3000080002404C2401403A00002008B54FF44D
:101E4000C060FFF767FA06208DF8000000208DF8CB
:101E500001008DF8020001208DF803006846FFF7AD
:101E60005EFA08BD0EB501210520FEF7A7FCFFF7BD
:101E7000E5FF0120ADF8080028208DF80B0002A92D
:101E80000A48FEF7F1F900210846FEF7FCFA0120A6
:101E9000009000208DF804000C208DF80500012032
:101EA0008DF806006846FFF7B5FA0EBD0008014040
:101EB0000246002005E011F8013B02F8013B431CFB
:101EC000D8B20B78002BF6D1137070472DE9F04192
:101ED00004460D461646002716B90020BDE8F081DD
:101EE0001CB9042030700020F8E71DB90C203070B8
:101EF0000020F3E7FF480078002803DD1120307050
:101F00000020EBE72078012808D0022807D003281A
:101F100002D0042804D100E000BF00BF00BF03E0EE
:101F2000012030700020D9E700BF01F0DBFD07463B
:101F300004F10F012846FFF7BBFF8046384601F049
:101F4000D5FD002030704046C8E70146002002E081
:101F5000491C421CD0B20A78002AF9D170472DE9F9
:101F6000F04104460D4616464FF000080EB9BDE894
:101F7000F08114B904203070F9E715B90C203070E5
:101F8000F5E7DC480078002802DD12203070EEE72B
:101F90002078012808D0022807D0032802D004287E
:101FA00004D100E000BF00BF00BF02E0012030709C
:101FB000DDE700BF01F096FD80462846FFF7C5FF2C
:101FC00007460F2F05DD404601F090FD0B203070D5
:101FD000CDE7294604F10F00FFF76AFF404601F004
:101FE00085FD00203070C2E77CB5002614E069460C
:101FF000304601F0A2FB054665B9BF4850F82640BF
:1020000044B1012C06D0D4E9020100EB8100E06369
:1020100001982064701CC6B21F2EE8DD7CBD10B58F
:10202000002402E0C82001F069FCB44800780028D0
:10203000F8D0B34800686421B0FBF1F0B049086003
:102040000846006828B90020AE490870FF2001F05A
:10205000C0FB00BF01F046FD0446AB480068AB4939
:1020600008600020A8490860204601F03FFDA7480D
:102070000068A3490968B0FBF1F0C0F16400A14910
:10208000087001F086FDFFF7AFFF642001F036FC19
:10209000E0E700B587B00323002280219C48CDE90A
:1020A0000323CDE901014FF6FE7300931E2300F5D3
:1020B000FE720021AFF2990001F013F906AA95A172
:1020C0001E2001F098FA07B000BD10B5002400BF33
:1020D00001F008FD04468C480068401C8A490860ED
:1020E000204601F003FD01F053FDF1E700B587B094
:1020F0000323002280218B48CDE90323CDE9010190
:102100004FF6FF7300931F2300F5FE720021AFF21C
:10211000450001F0E6F806AA83A11F2001F06BFA42
:1021200007B000BD04E0002200F8012B4A1E91B266
:102130000029F8DC704730B54FF4A0717E48FFF7F6
:10214000F1FF7D4C04F1200500230AE000202070FF
:1021500065603F20E0730021217420342035581C35
:1021600083B2092BF2DB0020207060603F20E07317
:102170000021217470487149086030BD30B54FF4BA
:10218000BD616F48FFF7CEFF80215B48FFF7CAFFB4
:102190006B4C04F1540500230AE065613F2084F88C
:1021A000440000214520015554345435581CC3B215
:1021B000112BF2D3002060613F2084F844000021FD
:1021C0004520015500205F4908605D485E49086070
:1021D00030BD00225D4B1A705D48002104E00022F2
:1021E00000F8012B4A1CD1B20429F8DB0022594B1C
:1021F0001A70594B1A70594B1A60594B1A60704734
:102200000020584908603B490870574908705749F1
:10221000087057490870574908603B4908603B49B6
:1022200008603749086035490870704710B501F0FB
:10223000ABFCFFF7E5FFFFF7CCFFFFF79FFFFFF7D2
:102240007AFFFFF753FFFFF724FF01F09EFC10BD5C
:1022500047480078012808D126480078FF2804D292
:1022600024480078401C2349087070474249374A87
:102270001278885C3649095C3F4A515C01EBC00129
:10228000354A1170704710B500243948007801288C
:1022900076D101F027FC044616480078002804DDBA
:1022A00014480078401E1349087012480078F0B9AD
:1022B0002D480078D8B9FFF7D9FF2748007825497D
:1022C0000978884213D00C482349097850F8210036
:1022D0002249086008460068006B401C09680863D2
:1022E00024480068401C2349086001F017FC204680
:1022F00044E045E0510000207C0E0020500000200A
:1023000048000020440000205C0000204C00002019
:102310007C0A002075432F4F532D49492053746187
:10232000740000007C0C002075432F4F532D494949
:102330002049646C650000003C090020400000203A
:10234000FC0E00206C0000206400002055000020DE
:102350005600002053000020540000206800002098
:102360006000002074000020520000205B0000206C
:102370005A0000203C0000207A3F000801F0B6FB24
:1023800010BD10B50024FF480078012811D101F0DC
:10239000A9FB0446FC48007840B9FC480078FF28B7
:1023A00004D2FA480078401CF8490870204601F031
:1023B0009DFB10BD10B5002401F094FB0446F248CB
:1023C0000078F0B9F1480078D8B9FFF74FFFF0482E
:1023D0000078F0490978884213D0EF48EC49097831
:1023E00050F82100ED49086008460068006B401C69
:1023F00009680863EA480068401CE949086001F080
:1024000088FB204601F072FB10BD10B50024DD48AA
:102410000078012822D101F065FB0446DB480078F2
:10242000002818DDD9480078401ED84908700846B1
:10243000007860B9D448007828B9204601F056FBEE
:10244000FFF7B8FF0AE0204601F050FB06E0204607
:1024500001F04CFB02E0204601F048FB10BD10B536
:10246000C848007890B9FFF701FFC9480078C9490A
:102470000870C948C649097850F82100C749086062
:1024800008460068C749086001F033FB10BD10B56D
:102490000024022001F032FA01F024FB044600205F
:1024A000C1490860204601F021FB642001F026FAB2
:1024B00001F018FB0446BC480068BC4908600120D4
:1024C000BB490870204601F011FB10BD70B5002615
:1024D00001F0AFFB01F006FB0646B6480068401C61
:1024E000B4490860304601F001FBA6480078012895
:1024F00054D1B148007820B1012804D0022809D174
:1025000003E001250BE0002509E001250120AA498F
:10251000087004E001250020A749087000BF00BF33
:1025200005B970BDA548046834E001F0DBFA064641
:10253000A08C58B3A08C401E0004000CA08425D1B0
:1025400094F8260010F0370F08D014F8260F20F06A
:102550003700207001206070263C02E0002084F8E3
:10256000270094F8260010F0080F0FD12A34A07825
:102570009349097808439249087020789149085C8A
:102580006178084314F82A198E4A50546469304619
:1025900001F0ACFA94F828001F28C6D1C1E74FF427
:1025A0008F707047704710B590F82A2001F10B0327
:1025B0009B5C90F82B40A34301F10B04A3542346EA
:1025C0009B5C23B98B7A90F82C40A3438B7210BD8F
:1025D0002DE9F04F04460D4616461F46A07A7A496B
:1025E00011F8009004F10B0010F8090011F800A098
:1025F0000AEBC90000F0FF0B674850F82B80002061
:10260000A8F82400C8F8205098F82600B04388F8AD
:10261000260088F8277098F8260010F0080F0FD1D0
:1026200098F82C00664909780843654908706548A0
:1026300010F8090098F82B100843624901F80900C6
:1026400021464046FFF7AFFF5846BDE8F08F10B572
:10265000544A1268D061534A126892F82A3000F145
:102660000B02D25C4F4B1B6893F82B301A434D4B37
:102670001B6893F82A4000F10B031A55827A494BE4
:102680001B6893F82C301A438272464A126892F8FB
:102690002A104C4A525C434B1B6893F82B309A43E8
:1026A000484B5A541A46525C42B93E4A126892F854
:1026B0002C30434A12789A43414B1A7010BD0023C4
:1026C000837200F10B01002204E0002301F8013BBA
:1026D000531CDAB2042AF8DB704705E011F8013B1D
:1026E00000F8013B531E9AB2002AF7DC70472DE92F
:1026F000F84F04460D4616461F46DDE90B9ADDF8F5
:1027000028800020009001F0EDF900902F48D0F8CB
:1027100000B0BBF1000F7DD02C49DBF8140008603D
:10272000009801F0E3F9CBF800508BF82840002026
:102730008BF826008BF82700ABF82400CBF8049028
:10274000CBF80C80CBF80860ABF810A0ABF8127097
:102750008BF82D00E0108BF82A0004F007008BF8AE
:1027600029009BF82A10012088408BF82C009BF848
:102770002910012088408BF82B000020CBF81C008A
:1027800026E000005A0000205100002052000020E6
:1027900054000020530000207C0E00206800002020
:1027A0003C000020600000205C0000204800002069
:1027B0005000002074000020700000206C000020F9
:1027C00055000020560000207A3F000864000020D9
:1027D000CBF82000CBF83000CBF83800CBF8340031
:1027E000CBF83C00CBF840003F208BF844000021A0
:1027F000452000F80B10584601F01AFA584601F02F
:10280000C5F901F06FF900901B4840F824B01B484F
:10281000006800E02BE0CBF814000020CBF8180093
:102820001648006818B115480068C0F818B0134879
:10283000C0F800B09BF82C001149097808431049F2
:1028400008709BF82A000F49085C9BF82B1008437E
:102850009BF82A100B4A50540B480078401C0A4938
:102860000870009801F042F90020BDE8F88F009848
:1028700001F03CF94220F8E77C0E00206C000020BB
:1028800055000020560000205B00002070B5044673
:1028900000260CB9002070BD2078012801D000204E
:1028A000F9E701F01FF906466568002060603046D0
:1028B00001F01CF92846EEE770B504460026F848FA
:1028C0000078002801DD002070BD01F00BF90646FC
:1028D000F4480568006820B1F24800684068F14992
:1028E0000860304601F002F95DB101202870002037
:1028F00028816C603F20E873002129742846FFF787
:10290000DEFE2846E0E72DE9F04704460D46164670
:102910004FF0000916B92046BDE8F0871CB9042025
:1029200030702046F8E72078012803D0012030706D
:102930002046F1E7DA480078002803DD0F203070E8
:102940002046E9E701F0CEF88146A07A08B10127D8
:1029500000E0002715B1012D3ED11BE09FB93F20BB
:10296000E0730021217400202070CE480068606070
:1029700000202081CB480460484601F0B7F80020D1
:102980003070804605E0484601F0B0F849203070CC
:10299000A04628E005E00023022219462046FFF762
:1029A00017FEA07A0028F6D13F20E07300212174A1
:1029B00000202070BB480068606000202081B9487A
:1029C0000460484601F092F8012F01D1FFF7F2FCB4
:1029D00000203070804606E0484601F087F8072066
:1029E0003070A04600BF00BF404695E72DE9F0419A
:1029F00004460D4616464FF0000816B90020BDE803
:102A0000F0811CB9042030700020F8E720780128FC
:102A100003D0012030700020F1E7A14800780028A1
:102A200003DD022030700020E9E79F48007800288D
:102A300003DD0D2030700020E1E701F053F88046FF
:102A4000676847B100206060404601F04FF8002001
:102A500030703846D3E79548006890F8260040F07B
:102A600002009249096881F8260000208F49096810
:102A700081F827008D48006885842046FFF7E7FD30
:102A8000404601F033F8FFF795FC01F02BF8804643
:102A90008648006890F8270020B101280DD0022850
:102AA0000AD105E081480068076A002030700DE017
:102AB00000270E20307009E000BF21467B480068E7
:102AC000FFF771FD00270A20307000BF00BF002013
:102AD0007649096881F826007449096881F8270059
:102AE00072490968C861714909680862404600F086
:102AF000FDFF384683E72DE9F04104460D461646B2
:102B00004FF0000816B90020BDE8F0811CB9042080
:102B100030700020F8E72078012803D001203070C1
:102B20000020F1E700F0DEFF8046A07A20B3002706
:102B30007DB1012D0CD107E002231A460021204669
:102B4000FFF746FD781CC7B2A07A0028F4D109E04F
:102B500000BF02231A4600212046FFF739FD781CEA
:102B6000C7B200BF00BF404600F0C0FFFFF722FC25
:102B70000E2030703846C7E7404600F0B7FF00200F
:102B80003070C1E770B504460D4600260CB904202C
:102B900070BD0DB90320FBE72078012801D001208A
:102BA000F6E700F09FFF0646A07A60B100230222FC
:102BB00029462046FFF70CFD304600F097FFFFF74F
:102BC000F9FB0020E4E7606820B1304600F08EFF9A
:102BD0001420DDE76560304600F088FF0020D7E76D
:102BE0002DE9F04104460D461646002714B904208D
:102BF000BDE8F0810DB90320FAE72078012801D063
:102C00000120F5E700F06EFF0746A07AE8B116F064
:102C1000010F0AD005E00023022229462046FFF7D3
:102C2000D7FCA07A0028F6D105E00023022229462D
:102C30002046FFF7CDFC384600F058FF16F0040F91
:102C400001D1FFF7B7FB0020D2E7606820B138461A
:102C500000F04CFF1420CBE76560384600F046FFDB
:102C60000020C5E72DE9F04704460D464FF0000966
:102C700014B90420BDE8F0870DB90920FAE72078DF
:102C8000012801D00120F5E700F02CFF8146A07A51
:102C9000287204F10B0605F1040800270EE000007D
:102CA0005100002040000020520000206000002061
:102CB00016F8010B08F8010B781CC7B2042FF7DBDC
:102CC00060682860484600F011FF0020D2E700004D
:102CD00070B5044600260CB9002070BD207803288A
:102CE00001D00020F9E700F0FDFE06462589002D01
:102CF00002DD2089401E2081304600F0F7FE284684
:102D0000EBE770B504460026EC480078002801DDAA
:102D1000002070BD00F0E6FE0646E9480568006840
:102D200020B1E74800684068E5490860304600F097
:102D3000DDFE5DB1032028702C81002068603F20FB
:102D4000E873002129742846FFF7B9FC2846E0E71C
:102D50002DE9F04704460D4616464FF0000916B916
:102D60002046BDE8F0871CB9042030702046F8E703
:102D70002078032803D0012030702046F1E7CF48A7
:102D80000078002803DD0F2030702046E9E700F0CE
:102D9000A9FE8146A07A08B1012700E0002715B1FD
:102DA000012D3ED11BE09FB93F20E073002121742B
:102DB00000202070C2480068606000202081C04868
:102DC0000460484600F092FE00203070804605E026
:102DD000484600F08BFE49203070A04628E005E010
:102DE0000023012219462046FFF7F2FBA07A0028B3
:102DF000F6D13F20E0730021217400202070B048FC
:102E00000068606000202081AD480460484600F002
:102E10006DFE012F01D1FFF7CDFA00203070804602
:102E200006E0484600F062FE07203070A04600BF72
:102E300000BF404695E72DE9F04104460D46164691
:102E400000270EB9BDE8F08114B904203070F9E70D
:102E50002078032802D001203070F3E797480078EB
:102E6000002802DD02203070ECE796480078002848
:102E700002DD0D203070E5E700F034FE07462089C2
:102E8000002808DD2089401E2081384600F02EFEF3
:102E900000203070D6E78C48006890F8260040F09B
:102EA00001008949096881F82600002086490968DF
:102EB00081F827008448006885842046FFF7C7FB17
:102EC000384600F013FEFFF775FA00F00BFE0746D8
:102ED0007D48006890F8270020B1012809D0022819
:102EE00006D102E0002030700BE00E20307008E0C8
:102EF00000BF214674480068FFF755FB0A20307078
:102F000000BF00BF00207049096881F826006E49A3
:102F1000096881F827006C490968C861384600F0E3
:102F2000E5FD8FE72DE9F04104460D4616464FF0CA
:102F3000000816B90020BDE8F0811CB904203070EB
:102F40000020F8E72078032803D00120307000200B
:102F5000F1E700F0C7FD8046A07A20B300277DB1DD
:102F6000012D0CD107E00223012200212046FFF7AA
:102F70002FFB781CC7B2A07A0028F4D109E000BF6B
:102F80000223012200212046FFF722FB781CC7B252
:102F900000BF00BF404600F0A9FDFFF70BFA0E206E
:102FA00030703846C7E7404600F0A0FD0020307082
:102FB000C1E770B5044600250CB9042070BD207827
:102FC000032801D00120F9E700F08CFD0546A07A26
:102FD00060B10023012219462046FFF7F9FA28467E
:102FE00000F084FDFFF7E6F90020E7E720894FF6BF
:102FF000FF71884207D22089401C2081284600F0BA
:1030000075FD0020DAE7284600F070FD3220D5E794
:103010002DE9F04704460D464FF0000914B904208D
:10302000BDE8F0870DB90920FAE72078032801D020
:103030000120F5E700F056FD8146A07AA87104F161
:103040000B06AF1C4FF0000807E016F8010B07F85D
:10305000010B08F1010000F0FF08B8F1040FF4DBE8
:1030600020892880484600F041FD0020D8E72DE95E
:10307000F04104460D46164600270EB9BDE8F08122
:1030800014B904203070F9E72078032802D0012019
:103090003070F3E700F026FD0746002030702089ED
:1030A000002801DD258105E0A07A08B9258101E02D
:1030B00049203070384600F019FDDFE7510000204C
:1030C0004000002052000020600000202DE9FF5F3A
:1030D00004460D46002000901F2C05DBFF2C03D07A
:1030E0002A2004B0BDE8F09F1F2D01DB2A20F8E75D
:1030F00000F0F8FC0090F94850F8250020B1009845
:1031000000F0F4FC2820ECE7FF2C03D1F448006821
:1031100090F82840F14850F8247027B9009800F042
:10312000E5FC2920DDE7012F04D1009800F0DEFC4A
:103130004320D6E74FEAE50805F00709012000FA29
:1031400008F000F0FF0B012000FA09F0C0B2039074
:103150000020E24941F82400084640F8257097F81D
:103160002AA097F82C00029097F82B100191DD48C7
:1031700010F80A00019908421FD0DA4810F80A0036
:1031800001998843D74901F80A00084610F80A0057
:1031900028B9D548007802998843D3490870D248A5
:1031A000007840EA0B00D0490870CE4810F80800BB
:1031B00003990843CB4901F80800FE69FEB106F106
:1031C0000B0010F80A000199884306F10B0101F881
:1031D0000A00084610F80A0018B9B07A0299884324
:1031E000B072B07A40EA0B00B07206F10B0010F832
:1031F00008100398014306F10B0000F8081087F847
:10320000285087F82A8087F8299087F82CB00398EF
:1032100087F82B00009800F069FCB448007801287A
:1032200001D1FFF7C7F800205BE72DE9FE4F044608
:103230000D46164698464FF00009B8F11F0F02DD03
:103240002A20BDE8FE8F00F04DFC8146A84800789A
:10325000002804DD484600F049FC3C20F1E79F4887
:1032600050F8280058BB01209C4941F828004846E6
:1032700000F03CFC002332462946204600F08AFC40
:1032800082460023009301931A465146404602931A
:10329000FFF72DFA074637B99448007801280CD17A
:1032A000FFF788F809E000F01DFC814600208B49FB
:1032B00041F82800484600F019FC3846C1E7484666
:1032C00000F014FC2820BCE712F0010F08D012F027
:1032D000020F05D002E0491E002308C00029FAD1E0
:1032E00070472DE9F04F87B004460D4616461F463D
:1032F000DDE912ABDDE91089002004901F2F03DD0A
:103300002A2007B0BDE8F08F00F0ECFB049078486D
:103310000078002804DD049800F0E8FB3C20F0E78A
:103320006E4850F82700002832D101206B4941F83F
:103330002700049800F0DAFB51464846149AFFF73C
:10334000C3FF324629462046149B00F023FC06901A
:10335000149BCDE900AB029343464A463846069992
:10336000FFF7C5F90590059830B960480078012845
:103370000CD1FFF71FF809E000F0B4FB0490002027
:10338000564941F82700049800F0B0FB0598B8E7CB
:10339000049800F0ABFB2820B3E770B50446002684
:1033A00053480078002801DD402070BD1F2C01D15A
:1033B0003E20FAE71F2C03DBFF2C01D02A20F4E784
:1033C00000F090FB0646FF2C03D14548006890F8BA
:1033D0002840424850F8245025B9304600F086FB7A
:1033E0004320E2E7012D04D1304600F07FFB3D2071
:1033F000DBE715F82A0F3B49085C69788843297890
:10340000384A505415F82A091146085C30B995F825
:103410002C1035480078884333490870E86918B1A2
:103420002846E969FFF7BFF80020A88485F8260040
:1034300085F827002F480078FF2804D22D4800780F
:10344000401C2C490870304600F050FBFFF7AAF8EA
:1034500000F048FB064627480078002804DD254890
:103460000078401E23490870284600F090FB22484F
:103470000078401E204908700020184941F82400B7
:10348000A86930B90020696988611C4968690860C9
:1034900005E0D5E905014861D5E9051088611848BE
:1034A00000686861164805603F2085F844000021E7
:1034B00045204155304600F019FB0C4800780128A2
:1034C00001D1FEF777FF00206FE72DE9F0410446B8
:1034D00000271F2C16D13E20BDE8F0817C0E002075
:1034E0006000002056000020550000205A000020F7
:1034F00051000020520000205B0000206C000020E2
:10350000640000201F2C03DBFF2C01D02A20E3E7FE
:10351000FF2C0BD100F0E6FA0746F248006890F85D
:103520002D50384600F0E2FA2846D5E700F0DAFAE6
:103530000746ED4850F8246026B9384600F0D6FA20
:103540004320C9E7012E04D1384600F0CFFA3D20D0
:10355000C2E73F2086F82D00384600F0C7FA002069
:10356000BAE72DE9F04704460D4616464FF000082D
:1035700016B90020BDE8F0871F2C05DDFF2C03D015
:103580002A2030700020F5E71DB90C203070002093
:10359000F0E7D6480078002803DD112030700020C5
:1035A000E8E700F09FFA8046FF2C03D1CD48006881
:1035B00090F82840CC4850F8247037B9404600F0C5
:1035C00095FA432030700020D4E7012F06D1404601
:1035D00000F08CFA432030700020CBE707F1440163
:1035E0002846FEF765FC8146404600F07FFA002041
:1035F00030704846BEE72DE9F04704460D461646B2
:103600004FF000090EB9BDE8F0871F2C04DDFF2C38
:1036100002D02A203070F6E715B90C203070F2E79E
:10362000B2480078002802DD12203070EBE700F08D
:1036300059FA8146FF2C03D1AA48006890F8284027
:10364000A94850F82480B8F1000F05D1484600F091
:103650004DFA43203070D6E7B8F1010F05D1484646
:1036600000F044FA43203070CDE72846FEF76DFCA9
:1036700007460F2F05DD484600F038FA412030702C
:10368000C1E7294608F14400FEF712FC484600F065
:103690002DFA00203070B6E770B5044600261F2CC6
:1036A00001DB2A2070BD00F01DFA06468E4850F856
:1036B000245025B9304600F019FA4620F2E7012DD2
:1036C00004D1304600F012FA4320EBE795F82600CB
:1036D00010F0080F2CD015F8260F20F008002870E5
:1036E00015F82609F8B9A88CC8B92A35A8788049F0
:1036F000097808437E49087028787E49085C697813
:10370000084315F82A197B4A5054304600F0EEF968
:1037100079480078012809D1FEF74CFE06E03046D2
:1037200000F0E4F902E0304600F0E0F90020B9E7EB
:10373000304600F0DBF94420B4E72DE9F0470446B9
:103740000D464FF0000A1F2C04DDFF2C02D02A206A
:10375000BDE8F0870DB90920FAE70020286068600D
:1037600000F0C0F98246FF2C03D15E48006890F853
:1037700028405D4850F8246026B9504600F0B6F95C
:103780004320E5E7012E04D1504600F0AFF9432075
:10379000DEE7308A10F0010F04D1504600F0A6F9A0
:1037A0004520D5E74FF00008D6F80C90B768504692
:1037B00000F09CF901E008F1010802CF0029FAD0DD
:1037C0004FEA88002860A9EB0800800068600020AC
:1037D000BEE72DE9F04104464FF000081F2C02D14E
:1037E0004720BDE8F0811F2C03DBFF2C01D02A20ED
:1037F000F7E700F077F98046FF2C05D139480068DB
:1038000090F82840012508E03648006890F8280024
:10381000A04201D1012500E00025334850F8246082
:1038200026B9404600F062F94820DAE7012E04D1BB
:10383000404600F05BF94320D3E796F82A702D4804
:10384000C05D96F82B1088432A49C8550846C05DCC
:1038500030B996F82C10264800788843244908701F
:1038600096F8260040F0080086F82600404600F052
:103870003DF9012D01D1FEF79DFD0020B1E72DE9B5
:10388000F04104460D4600271F2C04DDFF2C02D01A
:103890002A20BDE8F0810DB90920FAE700F022F9ED
:1038A0000746FF2C03D10F48006890F828400E48C7
:1038B00050F8246026B9384600F018F92920E8E7C6
:1038C000012E04D1384600F011F94320E1E75422DB
:1038D00031462846FEF701FF384600F007F9002080
:1038E000D7E70000600000207C0E0020510000207F
:1038F00055000020560000205A00002070B50446F4
:10390000002672480078002800DD70BD002C23DD01
:1039100000F0E8F806466E48006890F82A506D48B6
:10392000405D6B49096891F82B10884369494855F7
:103930000846405D40B96648006890F82C1066481B
:103940000078884364490870614800688484304680
:1039500000F0CCF8FEF72EFDD7E72DE9F04704463E
:103960000D4616461F4659480078002802DD5520AE
:10397000BDE8F08724B91DB916B90FB95420F7E78F
:103980003B2D01DD5120F3E73B2E01DD5220EFE717
:10399000B7F57A7F01DB5320EAE74FF47A7107FB32
:1039A00001F0B0FBF1F14FF461606043C5EB05122B
:1039B00000EB8200304400EB4002C2EBC01001EB90
:1039C000C0084FEA18491FFA88F84046FFF796FFEB
:1039D0000BE04FF40040FFF791FF4FF40040FFF77A
:1039E0008DFFA9F101001FFA80F9B9F1000FF0DC99
:1039F0000020BDE770B5044600261F2C01DB2A20FD
:103A000070BD00F06FF80646344850F8245025B9D0
:103A1000304600F06BF84320F2E7012D04D1304628
:103A200000F064F84320EBE7A88C20B9304600F0A2
:103A30005DF85020E4E70020A88495F8260010F0F7
:103A4000370F08D015F8260F20F037002870012016
:103A50006870263D02E0002085F8270095F82600D2
:103A600010F0080F15D12A35A8781B4909780843AA
:103A70001949087028781749085C6978084315F8CF
:103A80002A19144A5054304600F030F8FEF792FCE0
:103A900002E0304600F02AF80020B1E770B50025BA
:103AA00000F020F805460E480468284600F01EF88D
:103AB000204670BD70B50446002500F013F8054699
:103AC00007480460284600F011F870BD510000203E
:103AD0006000002056000020550000207C0E0020D1
:103AE00074000020EFF3108072B6704780F31088E6
:103AF00070471D484FF0FF010170002080F30988D6
:103B00001A48012101701A484FF08051016062B6D5
:103B1000FEE717484FF080510160704714484FF09E
:103B200080510160704772B6EFF3098028B12038E8
:103B300080E8F00F0F490968086000B50E4880471B
:103B40005DF804EB0D480E490A78027009480D49EA
:103B50000A680260106890E8F00F203080F309884E
:103B60004EF0040E62B6704722ED00E05A000020CD
:103B700004ED00E0600000202F3C0008530000200E
:103B8000540000206800002070477047704770475D
:103B90007047704770B5044610464FF08075056059
:103BA000051F28462C606FF00105061F3046356062
:103BB0004FF01235061F304635604FF00335061FB3
:103BC000304635604FF00235061F304635606D10C7
:103BD000061F30463560051F284629604FF0113515
:103BE000061F304635604FF01035061F30463560F1
:103BF0004FF00935061F304635604FF00835061F77
:103C0000304635604FF00735061F304635604FF0BF
:103C10000635061F304635604FF00535061F304625
:103C200035604FF00435061F3046356070BD704773
:103C30007047704780EA010210B502F00042400070
:103C400001D04B0001D1002010BD4FEA106101EB03
:103C50001361C0F35600C3F3560340F4000043F46D
:103C60000003A0FB03307F394FEA00401C0400D062
:103C7000401C50EA134001D44000491EC3B20C0658
:103C800004EBD010401C4008802B01D120F0010033
:103C9000002900DA0020104310BDF0B480EA0102D0
:103CA00030F0004302F0004221F0004000D010B993
:103CB000F0BC00207047C0F3C755C3F31601C3F32F
:103CC000C756731BC0F3160040F400047E3341F462
:103CD00000014FF080750020A14201D3091B284349
:103CE0006D084FEA4101F7D151B1A14202D14FF025
:103CF000004105E002D24FF0010101E06FF0010147
:103D0000F0BC00F038B896230022114600F033B81A
:103D100020F00040C10DC0F3160040F400007F29E0
:103D200001DA00207047962903DCC1F19601C840F2
:103D3000704796398840704730B50B4601460020E1
:103D40002022012409E021FA02F59D4205D303FA5D
:103D500002F5491B04FA02F52844151EA2F10102DE
:103D6000F1DC30BD002905DA401CB1F1004F01D172
:103D700020F00100704730B450EA01040BD130BC90
:103D80000020704701F0010545EA510141EAC07188
:103D900040085B1C01E04FF08074A042F2D24FF467
:103DA000000404E0400040EAD17049005B1EA042DC
:103DB000F8D300EBC350A0F5000030BC1044D1E7AD
:103DC000064C074D06E0E06840F0010394E8070068
:103DD00098471034AC42F6D3FCF78CF97C400008CD
:103DE0009C4000080FB410B503A9044B044A029884
:103DF00000F018F810BC5DF814FB00001B1B000855
:103E00007800002002E008C8121F08C1002AFAD179
:103E100070477047002001E001C1121F002AFBD14A
:103E2000704700002DE9FF4F89B004469A460025EF
:103E30008FE0252875D10027641C4C4AB846012123
:103E40002378203B01FA03F0104202D00743641CA0
:103E5000F6E720782E281AD114F8010F47F004074E
:103E60002A280DD10A98641C50F8048B0A900EE0A1
:103E700008EB880002EB400001EB0008641C01E045
:103E80006FF02F022178A1F130000928F0D92078B5
:103E9000002862D0642809D0692807D0752860D12D
:103EA0000A994FF00A0901C90A9114E00A994FF0E2
:103EB0000A0901C90A91002802DA40422D2102E0D4
:103EC000390504D52B218DF80010012104E0F907F4
:103ED00001D02021F7E700218B4609AE05E04946D5
:103EE000FFF72AFF303106F8011D0028F7D101A89D
:103EF000801B00F12009780701D44FF00108002051
:103F0000C84501DDA8EB09008046002706E01DF842
:103F1000070052460B9990476D1C7F1C5F45F6DBEE
:103F200005E01EE0302052460B9990476D1CB8F119
:103F30000000A8F10108F5DC05E016F8010B524677
:103F40000B9990476D1CB9F10000A9F10109F4DC4F
:103F5000641C207800287FF46CAF28460DB0BDE8C3
:103F6000F08F52460B9990476D1CF1E7092801002C
:103F7000FC60DAF266B6BEE0FEF600000100020068
:103F80000100030001000200010004000100020022
:103F90000100030001000200010005000100020011
:103FA0000100030001000200010004000100020002
:103FB00001000300010002000100060001000200F0
:103FC00001000300010002000100040001000200E2
:103FD00001000300010002000100050001000200D1
:103FE00001000300010002000100040001000200C2
:103FF00001000300010002000100070001000200AF
:1040000001000300010002000100040001000200A1
:104010000100030001000200010005000100020090
:104020000100030001000200010004000100020081
:10403000010003000100020001000600010002006F
:104040000100030001000200010004000100020061
:104050000100030001000200010005000100020050
:104060000100030001000200010004000100020041
:104070000100030001000200010000009C40000854
:10408000000000207C000000043E000818410008E9
:104090007C0000206C180000143E000800000000A6
:1040A0000000000000000000000000000102030406
:1040B00001020304060708090204060800A24A04D4
:1040C00000000000000000000102030406070809C8
:1040D00000000000000000000000000000000000E0
:1040E00000000000000000000000000000000000D0
:1040F00000000000000000000000000000000000C0
:1041000000000000000000000000000000000000AF
:084110000000000000000000A7
:0400000508000101ED
:00000001FF
