:020000040800F2
:10000000D811002089010008F1010008F30100085F
:10001000F7010008FB010008FF01000800000000D4
:1000200000000000000000000000000003020008C3
:100030000502000800000000B31C000809020008C7
:10004000A3010008A3010008A3010008A301000800
:10005000A3010008A3010008A3010008A3010008F0
:10006000A3010008A3010008A3010008A3010008E0
:10007000A3010008A3010008A3010008A3010008D0
:10008000A3010008A3010008A3010008A3010008C0
:10009000A3010008A3010008A3010008A3010008B0
:1000A000A3010008A3010008A3010008A3010008A0
:1000B000A3010008A3010008A3010008A301000890
:1000C000A3010008A3010008A3010008A301000880
:1000D000A3010008A3010008A3010008A301000870
:1000E000A3010008A3010008A301000800F002F822
:1000F00000F03CF80AA090E8000C82448344AAF186
:100100000107DA4501D100F031F8AFF2090EBAE883
:100110000F0013F0010F18BFFB1A43F0010318473B
:100120001C1E00003C1E0000103A24BF78C878C195
:10013000FAD8520724BF30C830C144BF04680C60ED
:10014000704700000023002400250026103A28BF35
:1001500078C1FBD8520728BF30C148BF0B60704739
:100160001FB5AFF300801FBD10B510BD01F02BFE11
:100170001146FFF7F5FF00F027F801F049FEFFF701
:10018000F3FF01F04FFE000009488047094800478F
:10019000FEE7FEE7FEE7FEE7FEE7FEE7FEE7FEE737
:1001A000FEE7FEE704480549054A064B7047000094
:1001B000B9090008ED000008D80B0020D811002074
:1001C000D80D0020D80D002010B500F0D5FC00F0AF
:1001D000FBFD0423044A0021044801F0FCF800F070
:1001E000C6FE002010BD00009C010020B90A0008D6
:1001F000704700BFFEE700BFFEE700BFFEE700BF9D
:10020000FEE770477047704710B500F0EFFD00F053
:1002100026FF00F006FE10BD10B50446C748844214
:1002200008D10121042000F01BFB0021042000F074
:1002300017FB46E0C248844208D10121082000F0A3
:100240000FFB0021082000F00BFB3AE0BD48844280
:1002500008D10121102000F003FB0021102000F044
:10026000FFFA2EE0B848844208D10121202000F096
:10027000F7FA0021202000F0F3FA22E0B34884428C
:1002800008D10121402000F0EBFA0021402000F0CD
:10029000E7FA16E0AE48844208D10121802000F040
:1002A000DFFA0021802000F0DBFA0AE0A94884424E
:1002B00007D10121801500F0D3FA0021A01500F02C
:1002C000CFFA10BD10B50121084600F0C9FA00218F
:1002D000012000F0C5FA10BDF0B500220023002473
:1002E00000250026002791F803C00CF00F0291F8BA
:1002F00003C01CF0100F03D091F802C04CEA0202B8
:10030000B1F800C01CF0FF0F31D0066800242BE0CC
:100310004FF0010C0CFA04F5B1F800C00CEA05032B
:10032000AB4220D1A5004FF00F0C0CFA05F7BE43ED
:1003300002FA05FC4CEA060691F803C0BCF1280F4E
:1003400006D14FF0010C0CFA04FCC0F814C00AE00E
:1003500091F803C0BCF1480F05D14FF0010C0CFA25
:1003600004FCC0F810C0641C082CD1D30660B1F89E
:1003700000C0BCF1FF0F34DD466800242EE004F11C
:10038000080C4FF0010E0EFA0CF5B1F800C00CEAA3
:100390000503AB4221D1A5004FF00F0C0CFA05F775
:1003A000BE4302FA05FC4CEA060691F803C0BCF114
:1003B000280F05D104F1080C0EFA0CFEC0F814E069
:1003C00091F803C0BCF1480F07D104F1080C4FF0BD
:1003D000010E0EFA0CFEC0F810E0641C082CCED3FF
:1003E0004660F0BD4FF6FF7101800221817004214B
:1003F000C17070470246002093680B4201D0012073
:1004000000E0002070470146886880B270470246CD
:100410000020D3680B4201D0012000E0002070478B
:100420000146C86880B270470161704741617047FA
:100430000AB1016100E041617047C16070474FF44B
:1004400080320A4382618161826182698269704778
:100450000022414B1A684FF680731A4042EA00129C
:100460000A433D4B1A6070473C49C8617047F0B57C
:10047000002200230024002500F00046B6F1004FC2
:1004800002D1354EF46901E0334E7468C0F3034580
:1004900082B200F44016B6F5401F08D124F0706413
:1004A0002D4E766826F070662B4F7E6012E000F4C9
:1004B0008016B6F5801F06D1032606FA05F39C4385
:1004C00044F0706406E0460D360102FA06F6B443C5
:1004D00044F0706421B1460D360102FA06F6344349
:1004E00000F00046B6F1004F02D11B4EF46101E06E
:1004F000194E7460F0BD30B500228B071C0F0F231E
:1005000003FA04F2144B08338C1053F8244094433C
:100510008D1043F825408C1053F824308C07240F9D
:1005200000FA04F423430C4C08348D1044F82530B1
:1005300030BD0A49DC310860704700000008014006
:10054000000C01400010014000140140001801405F
:10055000001C01400020014000000140000020423A
:10056000DB48006840F00100D9490860084640684F
:10057000D8490840D649486008460068D64908402E
:10058000D34908600846006820F4802008600846C7
:10059000406820F4FE0048604FF41F0088607047F8
:1005A000CB49096821F48031C94A116011460968B4
:1005B00021F480211160B0F5803F03D0B0F5802F89
:1005C0000ED106E0C249096841F48031C04A116089
:1005D00007E0BF49096841F4A021BD4A116000E06D
:1005E00000BF00BF704710B5014600220023002065
:1005F0004A11012A02D1B64C236806E0022A02D130
:10060000B34C236A01E0B24C636A01F01F0201247B
:1006100094401C4201D0012000E0002010BD70B5C4
:1006200000240025002600BF3120FFF7DCFF06462E
:10063000641CB4F5A06F01D0002EF5D03120FFF777
:10064000D2FF08B1012500E00025284670BD002139
:100650009F4A116821F0F80141EAC001116070471A
:100660009E49086070470022994B5A6822F47C1218
:1006700040EA01031A43964B5A607047974908664F
:1006800070470021924A516821F0030101435160F3
:1006900070478F48406800F00C00704700218C4A7A
:1006A000516821F0F0010143516070470021884AF0
:1006B000516821F4E0610143516070470021844A90
:1006C000516821F4605141EAC0015160704729B17D
:1006D0007F4A527A02437E4B5A7206E07C4A527A33
:1006E000C343DBB21A407A4B5A7270477B49D83108
:1006F000086070470021764A516821F44041014367
:10070000516070470021724A20321170704A82F89D
:100710002010012802D004280AD104E001216C4AEB
:100720002032117005E00521694A2032117000E085
:1007300000BF00BF70476A49086070476449096A92
:100740000143634A11627047654944390860704744
:1007500030B500210022002300245D4D6D6805F0B6
:100760000C0121B1042905D0082923D105E05D4DF4
:10077000056022E05B4D05601FE0554D6D6805F496
:100780007012534D6D6805F48033022505EB9242DB
:100790001BB9554D554305600BE04D4D6D6815F483
:1007A000003F03D0504D5543056002E04D4D554389
:1007B000056002E04B4D056000BF00BF444D6D6811
:1007C00005F0F0010909494D6C5C0568E54045609C
:1007D0003F4D6D6805F4E061090A444D6C5C456865
:1007E000E54085603A4D6D6805F46051C90A3F4D9A
:1007F0006C5C4568E540C560354D6D6805F4404169
:10080000890B3A4D10356C5CC568B5FBF4F5056194
:1008100030BD29B12E4A526902432D4B5A6104E082
:100820002B4A526982432A4B5A61704729B1284AA0
:1008300092690243264B9A6104E0254A92698243F9
:10084000234B9A61704729B1214AD2690243204B58
:10085000DA6104E01E4AD26982431D4BDA617047B7
:1008600029B11B4AD2680243194BDA6004E0184AE6
:10087000D2688243164BDA60704729B1144A126974
:100880000243134B1A6104E0114A12698243104B70
:100890001A61704712494039086070470F49C864AF
:1008A00070470B49C87170470948406A40F0807032
:1008B00007494862704701460020054A92680A428B
:1008C00001D0012000E00020704701498872704784
:1008D000001002400000FFF8FFFFF6FE0000424259
:1008E0008004424200127A0000093D00000000200E
:1008F00000200021674A126842F48032654B1A607A
:1009000000BF644A126802F40031401C11B9B0F50E
:10091000A06FF6D15F4A126812F4003F01D00121A6
:1009200000E00021012942D15B4A126842F0100226
:10093000594B1A601A46126822F003021A601A46CE
:10094000126842F002021A60524A5268514B5A60D1
:100950001A4652685A601A46526842F480625A60D7
:100960001A46526822F47C125A601A46526842F4BF
:10097000E8125A601A46126842F080721A6000BF8C
:10098000444A126812F0007FFAD0424A526822F0BC
:100990000302404B5A601A46526842F002025A6003
:1009A00000BF3C4A526802F00C02082AF9D1704795
:1009B00010B5FFF79DFF10BD10B53648006840F038
:1009C000010034490860084640683449084031490C
:1009D000486008460068324908402E4908600846C9
:1009E000006820F4802008600846406820F4FE007B
:1009F00048604FF41F008860FFF7DAFF4FF0006097
:100A00002849086010BD10B5002000210022214BAC
:100A10005B6803F00C0020B1042806D0082828D118
:100A200007E0214B214C236027E01F4B1F4C236024
:100A300023E0184B5B6803F47011164B5B6803F4FA
:100A40008032022303EB914122B9194B4B43174CDF
:100A500023600DE00F4B5B6813F4003F04D0144B90
:100A60004B43124C236003E00F4B4B430F4C23606E
:100A700003E00D4B0D4C236000BF00BF054B5B68CE
:100A8000C3F303130B4CE05C084B1B68C340074CDB
:100A9000236010BD00100240002002400000FFF85B
:100AA000FFFFF6FE08ED00E000127A0014000020BF
:100AB00000093D001800002010B532E000BF1021F1
:100AC0001848FFF7B3FC4FF4FA73002211461046A2
:100AD00001F00DF800BF10211248FFF7A5FC00BF80
:100AE00020211048FFF7A2FC4FF4FA7300221146B0
:100AF000104600F0FCFF00BF20210A48FFF794FCDD
:100B000000BF40210748FFF791FC4FF4FA73002221
:100B10001146104600F0EBFF00BF40210148FFF7EF
:100B200083FCCBE700080140174909684FF47A724B
:100B3000B1FBF2F0B0F1807F00D31CE020F07F41E8
:100B4000491E4FF0E022516100BF5117002905DA1C
:100B50000F2109010D4A0B23D15404E00F21090193
:100B60000B4A5317D15400BF00214FF0E02291618E
:100B70000721116100BF704710B5FFF71DFFFFF798
:100B8000D3FF00F007F810BD1400002018ED00E0BE
:100B900000E400E008B501210420FFF747FEF02043
:100BA000ADF8000010208DF8030003208DF802003E
:100BB00069460448FFF790FBF0210248FFF734FC38
:100BC00008BD0000000801407CB5002614E069461D
:100BD000304600F07EFE054665B9FF4850F82640D5
:100BE00044B1012C06D0D4E9020100EB810060631E
:100BF0000198A063701CC6B21F2EE8DD7CBD10B545
:100C0000002402E0C82000F043FFF44800780028E8
:100C1000F8D0F34800686421B0FBF1F0F0490860B7
:100C20000846006828B90020EE490870FF2000F04F
:100C30009CFE00BF01F01CF80446EB480068EB493D
:100C400008600020E8490860204601F015F8E748F0
:100C50000068E3490968B0FBF1F0C0F16400E149C4
:100C6000087001F05CF8FFF7AFFF642000F010FFA0
:100C7000E0E700B587B0032300228021DC48CDE9FE
:100C80000323CDE901014FF6FE7300931E2300F507
:100C9000FE720021AFF2990000F0F9FB06AAD5A17F
:100CA0001E2000F077FD07B000BD10B5002400BF86
:100CB00000F0DEFF0446CC480068401CCA490860CA
:100CC000204600F0D9FF01F029F8F1E700B587B020
:100CD000032300228021CB48CDE90323CDE9010184
:100CE0004FF6FF7300931F2300F5FE720021AFF251
:100CF000450000F0CCFB06AAC3A11F2000F04AFD6E
:100D000007B000BD704704E0002200F8012B4A1E26
:100D100091B20029F8DC704730B54FF4AB61BE48A2
:100D2000FFF7F1FF8021AC48FFF7EDFFBA4C04F16B
:100D30004C0500230AE065613F2084F83C00002157
:100D40003D2001554C344C35581CC3B2112BF2D305
:100D5000002060613F2084F83C0000213D200155C7
:100D60000020AE490860AC48AD49086030BD0022A3
:100D7000AC4B1A70AC48002104E0002200F8012BB3
:100D80004A1CD1B20429F8DB0022A84B1A70A84BE8
:100D90001A70A84B1A60A84B1A6070470020A74928
:100DA0000860A7490870A7490870A7490870A749B3
:100DB0000870A74908608C4908608C490860884918
:100DC000086086490870704710B500F0A3FFFFF770
:100DD000E5FFFFF7CCFFFFF79FFFFFF793FFFFF75C
:100DE00075FFFFF746FF00F096FF10BD97480078AB
:100DF000012808D192480078FF2804D29048007852
:100E0000401C8F49087070479249864A1278885C66
:100E10008549095C8F4A515C01EBC001844A11701D
:100E2000704710B5002489480078012830D100F0BF
:100E30001FFF044682480078002804DD80480078BF
:100E4000401E7F4908707E480078F0B97D480078E0
:100E5000D8B9FFF7D9FF76480078744909788842F5
:100E600013D05D487249097850F821007149086033
:100E700008460068806A401C0968886274480068F7
:100E8000401C7349086000F00FFF204600F0F4FE9C
:100E900010BD10B500246D480078012811D100F074
:100EA000E7FE04466648007840B966480078FF28A7
:100EB00004D264480078401C62490870204600F063
:100EC000DBFE10BD10B5002400F0D2FE04465C48E5
:100ED0000078F0B95B480078D8B9FFF795FF54481F
:100EE000007852490978884213D03B485049097824
:100EF00050F821004F49086008460068806A401C8D
:100F00000968886252480068401C5149086000F036
:100F1000C6FE204600F0B0FE10BD10B500244B48C0
:100F20000078012822D100F0A3FE0446454800784D
:100F3000002818DD43480078401E424908700846E2
:100F4000007860B93E48007828B9204600F094FE49
:100F5000FFF7B8FF0AE0204600F08EFE06E02046CC
:100F600000F08AFE02E0204600F086FE10BD10B5BB
:100F70003648007890B9FFF747FF2D4800782B4995
:100F8000087015482A49097850F821002949086055
:100F9000084600682849086000F071FE10BD10B5D1
:100FA0000024022000F074FD00F062FE04460020E0
:100FB0000D490860204600F05FFE642000F068FDE7
:100FC00000F056FE04460848006805490860012004
:100FD0000249087020463FE0A005002038000020AC
:100FE000300000202C0000204400002034000020AD
:100FF000A001002075432F4F532D494920537461A0
:1010000074000000A003002075432F4F532D494961
:101010002049646C65000000200600205400002078
:101020004C0000203D0000203E0000203B0000203E
:101030003C00002050000020480000205C00002000
:10104000390000203A000020430000204200002028
:10105000280000203A1E000800F00EFE10BD70B5FA
:10106000002600F0ACFE00F003FE06468D48006846
:10107000401C8C490860304600F0FEFD8A4800782C
:1010800001284FD18948007820B1012804D00228D6
:1010900009D103E001250BE0002509E0012501202D
:1010A0008249087004E0012500208049087000BFD3
:1010B00000BF05B970BD7E4804682FE000F0D8FD80
:1010C0000646A08B30B3A08B401E0004000CA0830A
:1010D00020D1A07F10F0370F06D0A07F20F037007E
:1010E000A0770120E07701E00020E077A07F10F0FA
:1010F000080F0FD12234A0786E49097808436D4952
:10110000087020786C49085C6178084314F822194B
:10111000694A50546469304600F0AEFD94F82000EE
:101120001F28CBD1C6E74FF48F707047704705E09A
:1011300011F8013B00F8013B531E9AB2002AF7DC7C
:1011400070470246002005E011F8013B02F8013B20
:10115000431CD8B20B78002BF6D1137070470146B0
:10116000002002E0491C421CD0B20A78002AF9D1C2
:1011700070472DE9F84F04460D4616461F46DDE937
:101180000B9ADDF828800020009000F071FD00909F
:101190004A48D0F800B0BBF1000F7DD04749DBF8DA
:1011A00014000860009800F067FDCBF800508BF841
:1011B000204000208BF81E008BF81F00ABF81C00AD
:1011C000CBF80490CBF80C80CBF80860ABF810A0FB
:1011D000ABF812708BF82500E0108BF8220004F0B9
:1011E00007008BF821009BF82210012088408BF823
:1011F00024009BF82110012088408BF82300002058
:10120000CBF82800CBF83000CBF82C00CBF834001A
:10121000CBF838003F208BF83C0000213D2000F83F
:101220000B10584600F0CAFD584600F075FD00F05E
:101230001FFD0090224840F824B01D480068CBF8FC
:1012400014000020CBF818001948006818B118489D
:101250000068C0F818B01648C0F800B09BF8240029
:10126000144909780843134908709BF82200124971
:10127000085C9BF8231008439BF822100E4A505438
:1012800010480078401C0F490870009800F0F4FCEA
:101290000020BDE8F88FFFE7009800F0EDFC422049
:1012A000F7E700005C00002042000020580000200A
:1012B000540000203D0000203E0000204C00002093
:1012C000A0050020430000202DE9FE4F04460D46F6
:1012D000002000901F2C04DBFF2C02D02A20BDE848
:1012E000FE8F1F2D01DB2A20F9E700F0C1FC0090E2
:1012F000F94850F8250020B1009800F0BDFC2820E6
:10130000EDE7FF2C03D1F548006890F82040F24843
:1013100050F8246026B9009800F0AEFC2920DEE7E2
:10132000012E04D1009800F0A7FC4320D7E7EF106E
:1013300005F007080120B84000F0FF0A012000FA7C
:1013400008F000F0FF0B0020E34941F824000846B4
:1013500040F8256096F8229096F82400029096F8BE
:1013600023000190DE4810F80910019801421DD0B9
:10137000DB4810F8090001998843D94901F80900B0
:10138000084610F8090028B9D64800780299884321
:10139000D4490870D348007840EA0A00D14908705F
:1013A000CF48C05D40EA0B00CD49C85586F82050B3
:1013B00086F8227086F8218086F824A086F823B06B
:1013C000009800F059FCC8480078012801D1FFF7C7
:1013D00079FD002083E72DE9FE4F04460D461646B1
:1013E00098464FF00009B8F11F0F02DD2A20BDE832
:1013F000FE8F00F03DFC8146BC480078002804DDEB
:10140000484600F039FC3C20F1E7B34850F828008A
:1014100058BB0120B04941F82800484600F02CFC98
:10142000002332462946204600F07AFC82460023FB
:10143000009301931A46514640460293FFF799FEE6
:10144000074637B9A848007801280CD1FFF73AFDC4
:1014500009E000F00DFC814600209F4941F828007A
:10146000484600F009FC3846C1E7484600F004FC55
:101470002820BCE712F0010F08D012F0020F05D0AF
:1014800002E0491E002308C00029FAD170472DE967
:10149000F04F87B004460D4616461F46DDE912ABF5
:1014A000DDE91089002004901F2F03DD2A2007B0FA
:1014B000BDE8F08F00F0DCFB04908C480078002839
:1014C00004DD049800F0D8FB3C20F0E7824850F897
:1014D0002700002832D101207F4941F827000498D5
:1014E00000F0CAFB51464846149AFFF7C3FF324644
:1014F00029462046149B00F013FC0690149BCDE96E
:1015000000AB029343464A4638460699FFF731FE40
:101510000590059830B97448007801280CD1FFF780
:10152000D1FC09E000F0A4FB049000206A4941F8D6
:101530002700049800F0A0FB0598B8E7049800F095
:101540009BFB2820B3E770B5044600266748007867
:10155000002801DD402070BD1F2C01D13E20FAE79C
:101560001F2C03DBFF2C01D02A20F4E700F080FBC6
:101570000646FF2C03D15948006890F82040564891
:1015800050F8245025B9304600F076FB4320E2E7BE
:10159000012D04D1304600F06FFB3D20DBE715F84C
:1015A000220F4F49085C6978884329784C4A505487
:1015B00015F822091146085C30B995F824104948FD
:1015C00000788843474908700020A883A877E87707
:1015D00047480078FF2804D245480078401C444919
:1015E0000870304600F048FBFFF7A0FD00F040FB1C
:1015F00006463F480078002804DD3D480078401E3C
:101600003B490870284600F088FB3A480078401EA5
:10161000384908700020304941F82400A86930B9E1
:1016200000206969886134496869086005E0D5E986
:1016300005014861D5E90510886130480068686196
:101640002E4805603F2085F83C0000213D20415593
:10165000304600F011FB24480078012801D1FFF743
:1016600031FC002077E72DE9F041044600271F2CCC
:1016700002D13E20BDE8F0811F2C03DBFF2C01D0FE
:101680002A20F7E7FF2C0BD100F0F2FA07461348A7
:10169000006890F82550384600F0EEFA2846E9E751
:1016A00000F0E6FA07460C4850F8246026B93846A0
:1016B00000F0E2FA4320DDE7012E04D1384600F0C5
:1016C000DBFA3D20D6E73F2086F82500384600F0BB
:1016D000D3FA0020CEE70000A0050020480000203B
:1016E0003E0000203D000020420000203900002084
:1016F0003A00002043000020540000204C0000204D
:101700002DE9F04704460D4616464FF0000816B97D
:101710000020BDE8F0871F2C05DDFF2C03D02A2018
:1017200030700020F5E71DB90C2030700020F0E784
:10173000D1480078002803DD112030700020E8E750
:1017400000F096FA8046FF2C03D1CC48006890F850
:101750002040CB4850F8247037B9404600F08CFA4E
:10176000432030700020D4E7012F06D1404600F01E
:1017700083FA432030700020CBE707F13C01284674
:10178000FFF7DFFC8146404600F076FA002030701B
:101790004846BEE72DE9F04704460D4616464FF091
:1017A00000090EB9BDE8F0871F2C04DDFF2C02D024
:1017B0002A203070F6E715B90C203070F2E7AE48F9
:1017C0000078002802DD12203070EBE700F050FABC
:1017D0008146FF2C03D1A948006890F82040A84812
:1017E00050F82480B8F1000F05D1484600F044FAC3
:1017F00043203070D6E7B8F1010F05D1484600F01C
:101800003BFA43203070CDE72846FFF7A8FC074697
:101810000F2F05DD484600F02FFA41203070C1E758
:10182000294608F13C00FFF78CFC484600F024FAFA
:1018300000203070B6E770B5044600261F2C01DB8F
:101840002A2070BD00F014FA06468D4850F8245046
:1018500025B9304600F010FA4620F2E7012D04D1F8
:10186000304600F009FA4320EBE7A87F10F0080F9C
:101870002AD0A87F20F00800A877A87FF8B9A88B05
:10188000C8B92235A8787F49097808437D4908708E
:1018900028787D49085C6978084315F822197A4A46
:1018A0005054304600F0E8F978480078012809D112
:1018B000FFF708FB06E0304600F0DEF902E03046B4
:1018C00000F0DAF90020BCE7304600F0D5F94420FA
:1018D000B7E72DE9F04704460D464FF0000A1F2CEC
:1018E00004DDFF2C02D02A20BDE8F0870DB90920C5
:1018F000FAE700202860686000F0BAF98246FF2C01
:1019000003D15E48006890F820405D4850F824609C
:1019100026B9504600F0B0F94320E5E7012E04D186
:10192000504600F0A9F94320DEE7308A10F0010F9D
:1019300004D1504600F0A0F94520D5E74FF000084B
:10194000D6F80C90B768504600F096F901E008F11F
:10195000010802CF0029FAD04FEA88002860A9EBDD
:101960000800800068600020BEE72DE9F0410446D1
:101970004FF000081F2C02D14720BDE8F0811F2C3A
:1019800003DBFF2C01D02A20F7E700F071F9804635
:10199000FF2C05D13948006890F82040012508E067
:1019A0003648006890F82000A04201D1012500E0EF
:1019B0000025334850F8246026B9404600F05CF911
:1019C0004820DAE7012E04D1404600F055F94320C3
:1019D000D3E796F822702C48C05D96F82310884310
:1019E0002949C8550846C05D30B996F824102548E5
:1019F0000078884323490870B07F40F00800B07732
:101A0000404600F039F9012D01D1FFF75BFA0020C3
:101A1000B3E72DE9F04104460D4600271F2C04DDF5
:101A2000FF2C02D02A20BDE8F0810DB90920FAE789
:101A300000F01EF90746FF2C03D11048006890F80B
:101A400020400F4850F8246026B9384600F014F9B9
:101A50002920E8E7012E04D1384600F00DF9432093
:101A6000E1E74C2231462846FFF761FB384600F09B
:101A700003F90020D7E700003900002048000020CB
:101A8000A00500203D0000203E0000204200002074
:101A900070B50446002670480078002800DD70BD4F
:101AA000002C23DD00F0E4F806466C48006890F84E
:101AB00022506B48405D6949096891F823108843BA
:101AC000674948550846405D40B96448006890F849
:101AD0002410644800788843624908705F480068B1
:101AE0008483304600F0C8F8FFF7ECF9D7E72DE91A
:101AF000F04704460D4616461F4657480078002812
:101B000002DD5520BDE8F08724B91DB916B90FB91B
:101B10005420F7E73B2D01DD5120F3E73B2E01DD9B
:101B20005220EFE7B7F57A7F01DB5320EAE74FF465
:101B30007A7107FB01F0B0FBF1F14FF46160604393
:101B4000C5EB051200EB8200304400EB4002C2EB13
:101B5000C01001EBC0084FEA18491FFA88F8404648
:101B6000FFF796FF0BE04FF40040FFF791FF4FF4B3
:101B70000040FFF78DFFA9F101001FFA80F9B9F1CC
:101B8000000FF0DC0020BDE770B5044600261F2CD6
:101B900001DB2A2070BD00F06BF80646324850F891
:101BA000245025B9304600F067F84320F2E7012DB4
:101BB00004D1304600F060F84320EBE7A88B20B951
:101BC000304600F059F85020E4E70020A883A87FB1
:101BD00010F0370F06D0A87F20F03700A87701203B
:101BE000E87701E00020E877A87F10F0080F15D112
:101BF0002235A8781B49097808431A4908702878C3
:101C00001749085C6978084315F82219144A50549A
:101C1000304600F031F8FFF755F902E0304600F0A9
:101C20002BF80020B6E770B5002500F021F8054636
:101C30000E480468284600F01FF8204670BD70B5B5
:101C40000446002500F014F80546084804602846BC
:101C500000F012F870BD000039000020480000209C
:101C60003E0000203D000020A00500205C00002078
:101C7000EFF3108072B6704780F3108870471D48EC
:101C80004FF0FF010170002080F309881A480121FC
:101C900001701A484FF08051016062B6FEE71748A4
:101CA0004FF080510160704714484FF0805101603F
:101CB000704772B6EFF3098028B1203880E8F00F42
:101CC0000F490968086000B50E4880475DF804EBCD
:101CD0000D480E490A78027009480D490A680260E9
:101CE000106890E8F00F203080F309884EF0040E61
:101CF00062B6704722ED00E04200002004ED00E0F3
:101D000048000020BB1D00083B0000203C000020D4
:101D10005000002070477047704770477047704709
:101D200070B5044610464FF080750560051F2846C3
:101D30002C606FF00105061F304635604FF01235FC
:101D4000061F304635604FF00335061F30463560BC
:101D50004FF00235061F304635606D10061F3046C5
:101D60003560051F284629604FF01135061F3046A3
:101D700035604FF01035061F304635604FF009359D
:101D8000061F304635604FF00835061F3046356077
:101D90004FF00735061F304635604FF00635061FF9
:101DA000304635604FF00535061F304635604FF040
:101DB0000435061F3046356070BD70477047704768
:101DC000704770477047754600F028F8AE4605002A
:101DD0006946534620F00700854618B020B5FEF747
:101DE000E1F9BDE820404FF000064FF000074FF04A
:101DF00000084FF0000B21F00701AC46ACE8C00929
:101E0000ACE8C009ACE8C009ACE8C0098D46704731
:101E10000446AFF300802046FEF7B1F90048704752
:101E2000780B002003494FF01800ABBE704700004C
:101E300009000000260002007047000001000200B7
:101E40000100030001000200010004000100020083
:101E50000100030001000200010005000100020072
:101E60000100030001000200010004000100020063
:101E70000100030001000200010006000100020051
:101E80000100030001000200010004000100020043
:101E90000100030001000200010005000100020032
:101EA0000100030001000200010004000100020023
:101EB0000100030001000200010007000100020010
:101EC0000100030001000200010004000100020003
:101ED00001000300010002000100050001000200F2
:101EE00001000300010002000100040001000200E3
:101EF00001000300010002000100060001000200D1
:101F000001000300010002000100040001000200C2
:101F100001000300010002000100050001000200B1
:101F200001000300010002000100040001000200A2
:101F30000100030001000200010000005C1F000816
:101F4000000000206000000028010008BC1F0008FD
:101F5000600000207811000044010008000000002B
:101F6000010203040102030406070809020406082B
:101F700000A24A0400000000000000000102030467
:101F80000607080900000000000000000000000033
:101F90000000000000000000000000000000000041
:101FA0000000000000000000000000000000000031
:0C1FB00000000000000000000000000025
:040000050800018965
:00000001FF
