:020000040800F2
:1000000080140020010100084D0100084F01000884
:1000100053010008570100085B01000800000000C0
:100020000000000000000000000000005F01000868
:1000300061010008000000001F2C00086501000895
:100040001B0100081B0100081B0100081B01000820
:100050001B0100081B0100081B0100081B01000810
:100060001B0100081B0100081B0100081B01000800
:100070001B0100081B0100081B0100081B010008F0
:100080001B0100081B0100081B0100081B010008E0
:100090001B0100081B0100081B0100081B010008D0
:1000A0001B0100081B0100081B0100081B010008C0
:1000B0001B0100081B0100081B0100081B010008B0
:1000C0001B0100081B0100081B0100081B010008A0
:1000D0001B0100081B0100081B0100081B01000890
:1000E0001B0100081B0100081B010008DFF80CD0F1
:1000F00002F0CCFE004800472501000880140020D3
:100100000648804706480047FEE7FEE7FEE7FEE7B1
:10011000FEE7FEE7FEE7FEE7FEE7FEE7A9130008BD
:10012000ED00000810B501F00DFB01F003FE042303
:10013000044A0021044802F004F901F0CEFE002038
:1001400010BD0000A40100207B160008704700BF0E
:10015000FEE700BFFEE700BFFEE700BFFEE7704717
:100160007047704710B501F0F7FD01F02EFF01F068
:100170000EFE10BD10B50446C748844208D10121C7
:10018000042000F01BFB0021042000F017FB46E0D8
:10019000C248844208D10121082000F00FFB002151
:1001A000082000F00BFB3AE0BD48844208D1012151
:1001B000102000F003FB0021102000F0FFFA2EE0D9
:1001C000B848844208D10121202000F0F7FA00212C
:1001D000202000F0F3FA22E0B348844208D1012144
:1001E000402000F0EBFA0021402000F0E7FA16E092
:1001F000AE48844208D10121802000F0DFFA0021BE
:10020000802000F0DBFA0AE0A948844207D10121EE
:10021000801500F0D3FA0021A01500F0CFFA10BD30
:1002200010B50121084600F0C9FA0021012000F0B4
:10023000C5FA10BDF0B500220023002400250026D9
:10024000002791F803C00CF00F0291F803C01CF0D6
:10025000100F03D091F802C04CEA0202B1F800C0BE
:100260001CF0FF0F31D0066800242BE04FF0010C8A
:100270000CFA04F5B1F800C00CEA0503AB4220D13A
:10028000A5004FF00F0C0CFA05F7BE4302FA05FC6F
:100290004CEA060691F803C0BCF1280F06D14FF0D6
:1002A000010C0CFA04FCC0F814C00AE091F803C079
:1002B000BCF1480F05D14FF0010C0CFA04FCC0F85A
:1002C00010C0641C082CD1D30660B1F800C0BCF18A
:1002D000FF0F34DD466800242EE004F1080C4FF0D7
:1002E000010E0EFA0CF5B1F800C00CEA0503AB42A2
:1002F00021D1A5004FF00F0C0CFA05F7BE4302FA0E
:1003000005FC4CEA060691F803C0BCF1280F05D1A4
:1003100004F1080C0EFA0CFEC0F814E091F803C0CA
:10032000BCF1480F07D104F1080C4FF0010E0EFA92
:100330000CFEC0F810E0641C082CCED34660F0BD63
:100340004FF6FF710180022181700421C170704756
:100350000246002093680B4201D0012000E00020FB
:1003600070470146886880B2704702460020D36813
:100370000B4201D0012000E0002070470146C86810
:1003800080B2704701617047416170470AB10161F5
:1003900000E041617047C16070474FF480320A430A
:1003A0008261816182618269826970470022414B6A
:1003B0001A684FF680731A4042EA00120A433D4B16
:1003C0001A6070473C49C8617047F0B500220023AD
:1003D0000024002500F00046B6F1004F02D1354E52
:1003E000F46901E0334E7468C0F3034582B200F44F
:1003F0004016B6F5401F08D124F070642D4E766883
:1004000026F070662B4F7E6012E000F48016B6F581
:10041000801F06D1032606FA05F39C4344F070645E
:1004200006E0460D360102FA06F6B44344F0706465
:1004300021B1460D360102FA06F6344300F00046BB
:10044000B6F1004F02D11B4EF46101E0194E746009
:10045000F0BD30B500228B071C0F0F2303FA04F206
:10046000144B08338C1053F8244094438D1043F8F8
:1004700025408C1053F824308C07240F00FA04F424
:1004800023430C4C08348D1044F8253030BD0A4904
:10049000DC3108607047000000080140000C01409A
:1004A000001001400014014000180140001C0140F0
:1004B000002001400000014000002042DB480068AD
:1004C00040F00100D949086008464068D849084012
:1004D000D649486008460068D6490840D3490860B4
:1004E0000846006820F4802008600846406820F430
:1004F000FE0048604FF41F0088607047CB490968D0
:1005000021F48031C94A11601146096821F4802123
:100510001160B0F5803F03D0B0F5802F0ED106E01A
:10052000C249096841F48031C04A116007E0BF49FF
:10053000096841F4A021BD4A116000E000BF00BF7E
:10054000704710B501460022002300204A11012AFD
:1005500002D1B64C236806E0022A02D1B34C236ACA
:1005600001E0B24C636A01F01F02012494401C4276
:1005700001D0012000E0002010BD70B5002400254E
:10058000002600BF3120FFF7DCFF0646641CB4F5EF
:10059000A06F01D0002EF5D03120FFF7D2FF08B1B7
:1005A000012500E00025284670BD00219F4A116802
:1005B00021F0F80141EAC001116070479E490860CE
:1005C00070470022994B5A6822F47C1240EA0103DA
:1005D0001A43964B5A607047974908667047002146
:1005E000924A516821F003010143516070478F48DE
:1005F000406800F00C00704700218C4A516821F0DF
:10060000F0010143516070470021884A516821F48C
:10061000E0610143516070470021844A516821F430
:10062000605141EAC0015160704729B17F4A527A56
:1006300002437E4B5A7206E07C4A527AC343DBB2D5
:100640001A407A4B5A7270477B49D831086070471C
:100650000021764A516821F44041014351607047BE
:100660000021724A20321170704A82F8201001284D
:1006700002D004280AD104E001216C4A2032117012
:1006800005E00521694A2032117000E000BF00BF7B
:1006900070476A49086070476449096A0143634AC0
:1006A00011627047654944390860704730B50021D0
:1006B0000022002300245D4D6D6805F00C0121B17E
:1006C000042905D0082923D105E05D4D056022E00D
:1006D0005B4D05601FE0554D6D6805F47012534D7C
:1006E0006D6805F48033022505EB92421BB9554D28
:1006F000554305600BE04D4D6D6815F4003F03D088
:10070000504D5543056002E04D4D5543056002E0F4
:100710004B4D056000BF00BF444D6D6805F0F00112
:100720000909494D6C5C0568E54045603F4D6D68C1
:1007300005F4E061090A444D6C5C4568E54085605C
:100740003A4D6D6805F46051C90A3F4D6C5C4568CF
:10075000E540C560354D6D6805F44041890B3A4D63
:1007600010356C5CC568B5FBF4F5056130BD29B189
:100770002E4A526902432D4B5A6104E02B4A5269BA
:1007800082432A4B5A61704729B1284A9269024331
:10079000264B9A6104E0254A92698243234B9A6171
:1007A000704729B1214AD2690243204BDA6104E043
:1007B0001E4AD26982431D4BDA61704729B11B4A38
:1007C000D2680243194BDA6004E0184AD2688243C7
:1007D000164BDA60704729B1144A12690243134B71
:1007E0001A6104E0114A12698243104B1A61704782
:1007F00012494039086070470F49C86470470B4977
:10080000C87170470948406A40F0807007494862E3
:10081000704701460020054A92680A4201D0012033
:1008200000E00020704701498872704700100240C4
:100830000000FFF8FFFFF6FE000042428004424243
:1008400000127A0000093D000000002010B50446A7
:10085000FB48844209D101218803FFF7AFFF002143
:100860004FF48040FFF7AAFF32E0F648844209D1F6
:1008700001214804FFF7AFFF00214FF40030FFF7DC
:10088000AAFF25E0F048844209D101218804FFF73E
:10089000A2FF00214FF48020FFF79DFF18E0EB48F6
:1008A000844209D10121C804FFF795FF00214FF4CC
:1008B0000020FFF790FF0BE0E548844208D10121BA
:1008C0000805FFF788FF00214FF48010FFF783FF32
:1008D00010BD2DE9F04786B004460D4600260027DE
:1008E00000BFB146B246A88900B100BFA246268A21
:1008F0004CF6FF700640E88806432682A6894EF62D
:10090000F3100640A88829890843698908430643EB
:10091000A681A68A4FF6FF400640A8890643A68214
:1009200001A8FFF7C3FE5446C548824501D1049F84
:1009300000E0039FA08910F4004F08D007EBC70028
:1009400000EB071029684900B0FBF1F807E007EB5E
:10095000C70000EB071029688900B0FBF1F864209C
:10096000B8FBF0F006013009642101FB1089A08971
:1009700010F4004F09D0322101EBC9006421B0FB13
:10098000F1F000F00700064308E0322101EB091006
:100990006421B0FBF1F000F00F000643268106B0A1
:1009A000BDE8F0874FF41651016000218180C180BD
:1009B00001810C21418100218181704710B5002205
:1009C000028A4FF2FF031A400B884C8823438C881D
:1009D0002343CC8823431A43028210BD00210180A7
:1009E00041808180C180704721B1828942F40052E8
:1009F000828104E082894DF6FF731A40828170473C
:100A0000F0B50024002500260023A1F510676A3FF9
:100A100000D100BF0346C1F3421401F01F050127B6
:100A200007FA05F6012C01D10C3304E0022C01D1A8
:100A3000103300E014331AB11F6837431F6002E01F
:100A40001F68B7431F60F0BD10B51AB1838A0B430E
:100A5000838204E0838ACC43A4B22340838210BD06
:100A6000028A4FF6F0731A400282028A0A43028217
:100A7000704782894FF2FF731A40828182890A434C
:100A80008281704721B1828942F00202828104E0B2
:100A900082894FF6FD731A4082817047028A4FF6B1
:100AA000DF731A400282028A0A430282704721B130
:100AB000028A42F48042028204E0028A4BF6FF730B
:100AC0001A4002827047C1F30802828070470146D3
:100AD0008888C0F308007047818941F00101818155
:100AE0007047028BD2B20283028B42EA0122028358
:100AF0007047028B02F47F420283028B0A43028317
:100B0000704721B1828A42F02002828204E0828A08
:100B10004FF6DF731A408282704721B1828A42F019
:100B20001002828204E0828A4FF6EF731A408282BA
:100B3000704721B1828A42F00802828204E0828AF0
:100B40004FF6F7731A408282704721B1828942F4CE
:100B50000042828103E08289C2F30E0282817047E3
:100B600021B1828A42F40062828204E0828A4FF2DA
:100B7000FF731A4082827047828A4FF6FB731A40D5
:100B80008282828A0A438282704721B1828A42F03D
:100B90000202828204E0828A4FF6FD731A4082824A
:100BA000704702460020B1F5007F00D100BF1388D6
:100BB0000B4201D0012000E00020704701F40072D8
:100BC000B2F5007F00D100BFCA430280704770B504
:100BD00002460023002400250020A1F510666A3E8D
:100BE00000D100BFC1F3421501F01F04012606FA2F
:100BF00004F4012D02D19689344006E0022D02D181
:100C0000168A344001E0968A34400B12012606FA17
:100C100003F31688334014B10BB1012000E000202B
:100C200070BD10B500220023A1F510646A3C00D10C
:100C300000BF0A1201249440A3B2DC43048010BD1B
:100C4000003801400044004000480040004C004093
:100C50000050004001684FF6FE7211400160002113
:100C6000016041608160C1608F49884208D18E492E
:100C70000839496841F00F018B4A083A516090E009
:100C800089491431884208D187490839496841F0B7
:100C9000F001854A083A516083E08349283188424F
:100CA00008D181490839496841F470617E4A083A9F
:100CB000516076E07C493C31884208D17A49083954
:100CC000496841F47041784A083A516069E07649D0
:100CD0005031884208D174490839496841F470217B
:100CE000714A083A51605CE06F496431884208D12A
:100CF0006D490839496841F470016B4A083A5160FE
:100D00004FE069497831884208D167490839496814
:100D100041F07061644A083A516042E06349884298
:100D200008D1011F096841F00F015F4A083AC2F873
:100D3000041436E05D491431884209D15B49091F2A
:100D4000096841F0F001584A083AC2F8041428E052
:100D500056492831884209D15449091F096841F48C
:100D60007061514A083AC2F804141AE04F493C3104
:100D7000884209D14D49091F096841F470414A4A26
:100D8000083AC2F804140CE048495031884208D1AE
:100D90004649091F096841F47021434A083AC2F8DC
:100DA0000414704710B50022026847F6F0739A43A6
:100DB0000C6A8B6823430C6923434C6923438C6979
:100DC0002343CC6923434C6A23438C6A23431A434D
:100DD0000260CB6843600B6883604B68C36010BDE2
:100DE0000021016041608160C160016141618161F8
:100DF000C161016241628162704721B1026842F0C3
:100E00000102026004E002684FF6FE731A400260BD
:100E100070471AB103680B43036002E003688B4319
:100E200003607047416070470146486880B2704770
:100E300002460020002112F0805F03D01B4B083BCC
:100E4000196802E0184B083B1968114201D00120D3
:100E500000E00020704710F0805F03D01349091FA5
:100E6000086002E0104908394860704702460020D7
:100E7000002112F0805F03D00C4B083B196802E0A0
:100E8000094B083B1968114201D0012000E0002005
:100E9000704710F0805F03D00449091F086002E02A
:100EA00001490839486070470800024008040240C0
:100EB00010B50446F748844208D101214015FFF7D8
:100EC0007DFC00216015FFF779FC17E0F2488442B1
:100ED00008D101210015FFF771FC00212015FFF753
:100EE0006DFC0BE0ED48844208D10121C803FFF7F7
:100EF00065FC00214FF40040FFF760FC10BD30B5E9
:100F0000002200234268E64C22400D790C6844EA36
:100F10000524224342608268E24C2240D1E9025417
:100F20002C434D7944EA450422438260C26A22F48C
:100F300070020C7C641EE4B2234342EA0352C26294
:100F400030BD00210160017141718160C1600121EA
:100F50000174704721B1826842F00102826003E0AF
:100F6000826822F001028260704721B1826842F4F7
:100F70008072826003E0826822F48072826070472F
:100F800010B50023CBB21AB144681C43446002E0A0
:100F900044689C43446010BD816841F00801816051
:100FA0007047014600208A6812F0080F01D0012026
:100FB00000E000207047816841F0040181607047C3
:100FC000014600208A6812F0040F01D0012000E0E1
:100FD0000020704721B1826842F4A002826003E0E1
:100FE000826822F4A00282607047014600208A686D
:100FF00012F4800F01D0012000E00020704710B5EE
:1010000000220023426822F460424B1E42EA43322F
:10101000426010BD21B1426842F40062426003E0C8
:10102000426822F4006242607047F0B50024002557
:10103000092911DDC468A1F10A0606EB4607072657
:1010400006FA07F5AC43A1F10A0606EB460603FAD9
:1010500006F52C43C4600CE0046901EB4107072648
:1010600006FA07F5AC4301EB410603FA06F52C43FB
:101070000461072A0FDA446B561E06EB86071F260B
:1010800006FA07F5AC43561E06EB860601FA06F58E
:101090002C43446322E00D2A0FDA046BD61F06EBC3
:1010A00086071F2606FA07F5AC43D61F06EB860611
:1010B00001FA06F52C43046310E0C46AA2F10D06A0
:1010C00006EB86071F2606FA07F5AC43A2F10D06CC
:1010D00006EB860601FA06F52C43C462F0BD21B189
:1010E000826842F48012826003E0826822F48012F7
:1010F000826070470146C86C80B2704765484C30CA
:101100000068704721B1426842F48062426003E0A7
:10111000426822F480624260704721B1426842F422
:101120008052426003E0426822F48052426070477D
:101130000022826822F4E0420A438260704721B1B3
:10114000826842F40042826003E0826822F4004236
:101150008260704721B1826842F40212826003E02B
:10116000826822F4021282607047014600208A6879
:1011700012F4001F01D0012000E000207047F0B5FC
:10118000002400250026092911DDC468A1F10A0701
:1011900007EB470C072707FA0CF5AC43A1F10A0748
:1011A00007EB470703FA07F52C43C4600CE004691A
:1011B00001EB410C072707FA0CF5AC4301EB4107A3
:1011C00003FA07F52C430461846BC4F30156D71C62
:1011D00006F1010CA7EB0C0707EB870C1F2707FA9A
:1011E0000CF5AC43D71C06F1010CA7EB0C0707EB81
:1011F000870701FA07F52C438463F0BD10B5002280
:101200000023826B22F440124B1E42EA0352826397
:1012100010BD10B50023034618460B441A6010BDDC
:101220000246002313461A4601F1280003441868B9
:1012300080B27047002242681B4B1A400A4342604A
:1012400070474162826270470022426822F01F02AA
:101250000A434260704740B10E490831096841F4C1
:101260000001124AC2F8081407E00A490831096867
:1012700021F400010D4AC2F808147047024600200C
:1012800013680B4201D0012000E000207047CA43E0
:10129000026070470024014000280140003C0140EA
:1012A000FFFEF0FFFDF7F1FFFFFD3FFF00200140D3
:1012B00070B502460020002300240B125568CEB200
:1012C00005EA060415681D4202D00CB1012000E0B9
:1012D000002070BD00220A12D34303607047000053
:1012E00000200021674A126842F48032654B1A6080
:1012F00000BF644A126802F40031401C11B9B0F515
:10130000A06FF6D15F4A126812F4003F01D00121AC
:1013100000E00021012942D15B4A126842F010022C
:10132000594B1A601A46126822F003021A601A46D4
:10133000126842F002021A60524A5268514B5A60D7
:101340001A4652685A601A46526842F480625A60DD
:101350001A46526822F47C125A601A46526842F4C5
:10136000E8125A601A46126842F080721A6000BF92
:10137000444A126812F0007FFAD0424A526822F0C2
:101380000302404B5A601A46526842F002025A6009
:1013900000BF3C4A526802F00C02082AF9D170479B
:1013A00010B5FFF79DFF10BD10B53648006840F03E
:1013B0000100344908600846406834490840314912
:1013C000486008460068324908402E4908600846CF
:1013D000006820F4802008600846406820F4FE0081
:1013E00048604FF41F008860FFF7DAFF4FF000609D
:1013F0002849086010BD10B5002000210022214BB3
:101400005B6803F00C0020B1042806D0082828D11E
:1014100007E0214B214C236027E01F4B1F4C23602A
:1014200023E0184B5B6803F47011164B5B6803F400
:101430008032022303EB914122B9194B4B43174CE5
:1014400023600DE00F4B5B6813F4003F04D0144B96
:101450004B43124C236003E00F4B4B430F4C236074
:1014600003E00D4B0D4C236000BF00BF054B5B68D4
:10147000C3F303130B4CE05C084B1B68C340074CE1
:10148000236010BD00100240002002400000FFF861
:10149000FFFFF6FE08ED00E000127A0014000020C5
:1014A00000093D001800002070B518E0854800884C
:1014B00001F0A5FC06464FF08B4101F06AFC0546A1
:1014C000814901F033FC044601F09EFC7F4908701D
:1014D0004FF4FA7300221146104601F0BEFAE5E718
:1014E0002DE9F04185E0794800784FF47A7190FB5E
:1014F000F1F0C7B27548007890FBF1F201FB1200E1
:10150000642190FBF1F0C4B2704800784FF47A7116
:1015100090FBF1F201FB1200642190FBF1F201FB60
:1015200012000A2190FBF1F0C5B2684800784FF430
:101530007A7190FBF1F201FB1200642190FBF1F251
:1015400001FB12000A2190FBF1F201FB1200C6B26E
:101550004FF470415E48FEF715FF4FF480515C4830
:10156000FEF712FF5B49885D00F033FA0323002287
:101570001146104601F071FA4FF470415448FEF7DD
:1015800001FF4FF400515248FEF7FEFE5149485DFD
:1015900000F01FFA032300221146104601F05DFA05
:1015A0004FF470414A48FEF7EDFE4FF48041484841
:1015B000FEF7EAFE4749085D00F00BFA032300221C
:1015C0001146104601F049FA4FF470414048FEF7C9
:1015D000D9FE4FF400413E48FEF7D6FE3D49C85DB6
:1015E00000F0F7F9032300221146104601F035FA06
:1015F00000BF78E710B509E037A001F059FC4FF4BF
:10160000FA7300221146104601F027FAF4E710B5EC
:1016100032E000BF10213248FEF7B6FE4FF4FA73F5
:1016200000221146104601F018FA00BF10212C4884
:10163000FEF7A8FE00BF20212948FEF7A5FE4FF4C3
:10164000FA7300221146104601F007FA00BF20216C
:101650002348FEF797FE00BF40212148FEF794FE85
:101660004FF4FA7300221146104601F0F6F900BF5C
:1016700040211B48FEF786FECBE710B50523194A2B
:101680000021AFF2750000F05CFE0623164A00212F
:10169000AFF29F0000F055FE0723144A0021AFF27D
:1016A000BF1000F04EFE0823114A0021AFF20720C0
:1016B00000F047FE05E00A2300221146104601F023
:1016C000CCF9F8E72A000020000020412800002083
:1016D000000C0140002F00082068656C6C6F200032
:1016E00000080140E40200202404002064050020DA
:1016F000A40600201A4909684FF47A72B1FBF2F08F
:10170000B0F1807F00D31CE020F07F41491E4FF0F4
:10171000E022516100BF5117002905DA0F210901AC
:10172000104A0B23D15404E00F2109010E4A53172C
:10173000D15400BF00214FF0E022916107211161D7
:1017400000BF704710B5FFF72FFEFFF7D3FF00F083
:101750000DF800F025F800F023F900F0DDF910BDD8
:101760001400002018ED00E000E400E008B50121BD
:101770000420FFF709F8F020ADF8000010208DF8E4
:10178000030003208DF8020069460448FEF752FD6D
:10179000F0210248FEF7F6FD08BD000000080140F8
:1017A00000B585B0012144F20400FEF7EDFF4FF4CF
:1017B0000070ADF8100018208DF8130003208DF88C
:1017C000120004A97448FEF735FD4FF48060ADF8AF
:1017D000100004208DF8130004A96F48FEF72AFDBD
:1017E0004FF4E13000900020ADF80400ADF80600A1
:1017F000ADF80800ADF80C000C20ADF80A00694601
:101800006648FFF766F801216448FFF7EDF805B078
:1018100000BD70B504460D46E1B26048FFF753F9CC
:1018200000BF40215D48FFF7BCF90128F9D12046EF
:1018300070BDF0B5034600270E460A2A03D00020EB
:1018400030700846F0BD33B9302006F8010B002097
:1018500030700846F6E7002B03DA2D2006F8010B5E
:101860005B4242F210740DE093FBF4F505B937B119
:1018700005F1300006F8010B05FB143301270A209F
:1018800094FBF0F4002CEFDC002030700846D9E720
:101890000FB470B586B004460CA8019073E00B98A5
:1018A00000785C281CD10B98401C0B9000786E28A7
:1018B00009D072280FD10D212046FFF704F90B98AB
:1018C000401C0B900BE00A212046FFF7FCF80B9818
:1018D000401C0B9003E00B98401C0B9000BF4BE0AA
:1018E0000B980078252840D10B98401C0B9000786D
:1018F000642818D0732833D1019820C801900BE0D8
:1019000029782046FFF7DFF800BF40212046FFF787
:1019100048F90028F9D06D1C28780028F0D10B98E0
:10192000401C0B9020E0019840C801900A2202A9B7
:101930003046FFF77EFF02AD0BE029782046FFF727
:10194000C2F800BF40212046FFF72BF90028F9D04C
:101950006D1C28780028F0D10B98401C0B9003E0F8
:101960000B98401C0B9000BF06E00B9810F8011B71
:101970000B902046FFF7A7F800BF40212046FFF755
:1019800010F90028F9D00B980078002887D106B00C
:1019900070BC5DF814FB00000008014000380140F5
:1019A00008B501210820FEF7EFFE4FF47C40ADF8AA
:1019B000000003208DF8020010208DF80300694616
:1019C0001548FEF737FC4FF470411348FEF7DAFC78
:1019D00008BD70B5044600251AE04FF400610E48BA
:1019E000FEF7D2FC14F0010F05D04FF480610A48D5
:1019F000FEF7CAFC04E04FF480610748FEF7C2FC22
:101A00004FF400610448FEF7BDFC6410681CC5B2C9
:101A1000082DE2DB70BD0000000C014008B501217B
:101A20000846FEF7A4FE01214FF40470FEF7ACFE59
:101A30008020ADF8000000208DF803006946394889
:101A4000FEF7F8FB08BD00B591B03748FFF702F983
:101A500036480690364807900020089001200990EB
:101A600000200A900B904FF480700C9080000D9035
:101A700020200E9000020F900020109006A92A4806
:101A8000FFF790F901212848FFF7B7F900200190EE
:101A90008DF8080001208DF809004FF460200390B4
:101AA0000020049001208DF8140001A91F484C3833
:101AB000FFF725FA4FF44040FEF7CAFD0523012247
:101AC00007211A484C38FFF7B0FA012117484C3863
:101AD000FFF74BFA012115484C38FFF73BFA134842
:101AE0004C38FFF759FA00BF10484C38FFF759FA45
:101AF0000028F9D10D484C38FFF75DFA00BF0B48BC
:101B00004C38FFF75DFA0028F9D1012107484C381D
:101B1000FFF760FA11B000BD10B5FFF77FFFFFF7C8
:101B200092FF10BD00080140080002404C24014013
:101B30002A0000207CB5002614E06946304600F0FB
:101B40007EFE054665B9FF4850F8264044B1012C99
:101B500006D0D4E9020100EB810060630198A06324
:101B6000701CC6B21F2EE8DD7CBD10B5002402E05B
:101B7000C82000F043FFF44800780028F8D0F3486C
:101B800000686421B0FBF1F0F04908600846006885
:101B900028B90020EE490870FF2000F09CFE00BF2D
:101BA00001F01CF80446EB480068EB49086000208F
:101BB000E8490860204601F015F8E7480068E34965
:101BC0000968B0FBF1F0C0F16400E149087001F070
:101BD0005CF8FFF7AFFF642000F010FFE0E700B50E
:101BE00087B0032300228021DC48CDE90323CDE91F
:101BF00001014FF6FE7300931E2300F5FE720021D3
:101C0000AFF2990000F0F9FB06AAD5A11E2000F062
:101C100077FD07B000BD10B5002400BF00F0DEFF67
:101C20000446CC480068401CCA490860204600F0C1
:101C3000D9FF01F029F8F1E700B587B003230022AE
:101C40008021CB48CDE90323CDE901014FF6FF7395
:101C500000931F2300F5FE720021AFF2450000F053
:101C6000CCFB06AAC3A11F2000F04AFD07B000BDAF
:101C7000704704E0002200F8012B4A1E91B20029AF
:101C8000F8DC704730B54FF4AB61BE48FFF7F1FFA9
:101C90008021AC48FFF7EDFFBA4C04F14C0500235E
:101CA0000AE065613F2084F83C0000213D20015599
:101CB0004C344C35581CC3B2112BF2D30020606158
:101CC0003F2084F83C0000213D2001550020AE4912
:101CD0000860AC48AD49086030BD0022AC4B1A70BA
:101CE000AC48002104E0002200F8012B4A1CD1B2CC
:101CF0000429F8DB0022A84B1A70A84B1A70A84BD5
:101D00001A60A84B1A6070470020A7490860A749CD
:101D10000870A7490870A7490870A7490870A74923
:101D200008608C4908608C490860884908608649C9
:101D30000870704710B500F0A3FFFFF7E5FFFFF74D
:101D4000CCFFFFF79FFFFFF793FFFFF775FFFFF74C
:101D500046FF00F096FF10BD97480078012808D193
:101D600092480078FF2804D290480078401C8F49A0
:101D7000087070479249864A1278885C8549095CE8
:101D80008F4A515C01EBC001844A1170704710B555
:101D9000002489480078012830D100F01FFF044654
:101DA00082480078002804DD80480078401E7F4982
:101DB00008707E480078F0B97D480078D8B9FFF700
:101DC000D9FF7648007874490978884213D05D4875
:101DD0007249097850F82100714908600846006886
:101DE000806A401C0968886274480068401C734916
:101DF000086000F00FFF204600F0F4FE10BD10B5A3
:101E000000246D480078012811D100F0E7FE044657
:101E10006648007840B966480078FF2804D26448D4
:101E20000078401C62490870204600F0DBFE10BDBF
:101E300010B5002400F0D2FE04465C480078F0B9EA
:101E40005B480078D8B9FFF795FF544800785249AD
:101E50000978884213D03B485049097850F821004E
:101E60004F49086008460068806A401C096888621B
:101E700052480068401C5149086000F0C6FE2046E8
:101E800000F0B0FE10BD10B500244B4800780128CA
:101E900022D100F0A3FE044645480078002818DD52
:101EA00043480078401E424908700846007860B9EF
:101EB0003E48007828B9204600F094FEFFF7B8FFAE
:101EC0000AE0204600F08EFE06E0204600F08AFE82
:101ED00002E0204600F086FE10BD10B536480078BE
:101EE00090B9FFF747FF2D4800782B490870154837
:101EF0002A49097850F821002949086008460068F5
:101F00002849086000F071FE10BD10B500240220C1
:101F100000F074FD00F062FE044600200D490860E8
:101F2000204600F05FFE642000F068FD00F056FEE1
:101F30000446084800680549086001200249087005
:101F400020463FE0A80A00203C000020340000208A
:101F5000300000204800002038000020A8060020A3
:101F600075432F4F532D494920537461740000006D
:101F7000A808002075432F4F532D49492049646C10
:101F800065000000280B00205800002050000020B1
:101F900041000020420000203F00002040000020BF
:101FA000540000204C000020600000203D00002074
:101FB0003E00002047000020460000202C000020AA
:101FC0000A2F000800F00EFE10BD70B5002600F0CC
:101FD000ACFE00F003FE06468D480068401C8C49AC
:101FE0000860304600F0FEFD8A48007801284FD195
:101FF0008948007820B1012804D0022809D103E0E3
:1020000001250BE0002509E0012501208249087027
:1020100004E0012500208049087000BF00BF05B919
:1020200070BD7E4804682FE000F0D8FD0646A08B06
:1020300030B3A08B401E0004000CA08320D1A07FF1
:1020400010F0370F06D0A07F20F03700A0770120D6
:10205000E07701E00020E077A07F10F0080F0FD1BB
:102060002234A0786E49097808436D4908702078B9
:102070006C49085C6178084314F82219694A505485
:102080006469304600F0AEFD94F820001F28CBD1E3
:10209000C6E74FF48F707047704705E011F8013BB9
:1020A00000F8013B531E9AB2002AF7DC7047024643
:1020B000002005E011F8013B02F8013B431CD8B2B7
:1020C0000B78002BF6D1137070470146002002E018
:1020D000491C421CD0B20A78002AF9D170472DE978
:1020E000F84F04460D4616461F46DDE90B9ADDF80B
:1020F00028800020009000F071FD00904A48D0F840
:1021000000B0BBF1000F7DD04749DBF81400086038
:10211000009800F067FDCBF800508BF820400020BD
:102120008BF81E008BF81F00ABF81C00CBF8049056
:10213000CBF80C80CBF80860ABF810A0ABF81270AD
:102140008BF82500E0108BF8220004F007008BF8D4
:1021500021009BF82210012088408BF824009BF876
:102160002110012088408BF823000020CBF82800A4
:10217000CBF83000CBF82C00CBF83400CBF838008B
:102180003F208BF83C0000213D2000F80B10584602
:1021900000F0CAFD584600F075FD00F01FFD0090EC
:1021A000224840F824B01D480068CBF814000020F5
:1021B000CBF818001948006818B118480068C0F832
:1021C00018B01648C0F800B09BF8240014490978EC
:1021D0000843134908709BF822001249085C9BF8D9
:1021E000231008439BF822100E4A505410480078E0
:1021F000401C0F490870009800F0F4FC0020BDE876
:10220000F88FFFE7009800F0EDFC4220F7E70000B0
:1022100060000020460000205C00002058000020E4
:10222000410000204200002050000020A80A0020A9
:10223000470000202DE9FE4F04460D460020009087
:102240001F2C04DBFF2C02D02A20BDE8FE8F1F2D9F
:1022500001DB2A20F9E700F0C1FC0090F94850F8B2
:10226000250020B1009800F0BDFC2820EDE7FF2CF0
:1022700003D1F548006890F82040F24850F82460F7
:1022800026B9009800F0AEFC2920DEE7012E04D12B
:10229000009800F0A7FC4320D7E7EF1005F00708EF
:1022A0000120B84000F0FF0A012000FA08F000F019
:1022B000FF0B0020E34941F82400084640F8256060
:1022C00096F8229096F82400029096F82300019048
:1022D000DE4810F80910019801421DD0DB4810F8C3
:1022E000090001998843D94901F80900084610F806
:1022F000090028B9D648007802998843D449087063
:10230000D348007840EA0A00D1490870CF48C05D40
:1023100040EA0B00CD49C85586F8205086F8227057
:1023200086F8218086F824A086F823B0009800F073
:1023300059FCC8480078012801D1FFF779FD002039
:1023400083E72DE9FE4F04460D46164698464FF0AA
:102350000009B8F11F0F02DD2A20BDE8FE8F00F052
:102360003DFC8146BC480078002804DD484600F06A
:1023700039FC3C20F1E7B34850F8280058BB012055
:10238000B04941F82800484600F02CFC00233246B2
:102390002946204600F07AFC8246002300930193F0
:1023A0001A46514640460293FFF799FE074637B951
:1023B000A848007801280CD1FFF73AFD09E000F0A9
:1023C0000DFC814600209F4941F82800484600F056
:1023D00009FC3846C1E7484600F004FC2820BCE769
:1023E00012F0010F08D012F0020F05D002E0491ED2
:1023F000002308C00029FAD170472DE9F04F87B0BB
:1024000004460D4616461F46DDE912ABDDE910898C
:10241000002004901F2F03DD2A2007B0BDE8F08FB5
:1024200000F0DCFB04908C480078002804DD049860
:1024300000F0D8FB3C20F0E7824850F82700002845
:1024400032D101207F4941F82700049800F0CAFBEF
:1024500051464846149AFFF7C3FF324629462046A4
:10246000149B00F013FC0690149BCDE900AB029383
:1024700043464A4638460699FFF731FE05900598CF
:1024800030B97448007801280CD1FFF7D1FC09E07D
:1024900000F0A4FB049000206A4941F8270004984A
:1024A00000F0A0FB0598B8E7049800F09BFB2820FB
:1024B000B3E770B50446002667480078002801DDC0
:1024C000402070BD1F2C01D13E20FAE71F2C03DBFA
:1024D000FF2C01D02A20F4E700F080FB0646FF2CF9
:1024E00003D15948006890F82040564850F82450CD
:1024F00025B9304600F076FB4320E2E7012D04D1F8
:10250000304600F06FFB3D20DBE715F8220F4F4906
:10251000085C6978884329784C4A505415F8220998
:102520001146085C30B995F8241049480078884372
:10253000474908700020A883A877E87747480078C3
:10254000FF2804D245480078401C444908703046B2
:1025500000F048FBFFF7A0FD00F040FB06463F48B7
:102560000078002804DD3D480078401E3B49087093
:10257000284600F088FB3A480078401E3849087029
:102580000020304941F82400A86930B90020696969
:10259000886134496869086005E0D5E9050148614A
:1025A000D5E9051088613048006868612E480560EB
:1025B0003F2085F83C0000213D204155304600F089
:1025C00011FB24480078012801D1FFF731FC0020DD
:1025D00077E72DE9F041044600271F2C02D13E2069
:1025E000BDE8F0811F2C03DBFF2C01D02A20F7E788
:1025F000FF2C0BD100F0F2FA07461348006890F860
:102600002550384600F0EEFA2846E9E700F0E6FAF1
:1026100007460C4850F8246026B9384600F0E2FA24
:102620004320DDE7012E04D1384600F0DBFA3D20DF
:10263000D6E73F2086F82500384600F0D3FA002080
:10264000CEE70000A80A00204C0000204200002035
:1026500041000020460000203D0000203E000020F8
:102660004700002058000020500000202DE9F047CE
:1026700004460D4616464FF0000816B90020BDE886
:10268000F0871F2C05DDFF2C03D02A20307000209E
:10269000F5E71DB90C2030700020F0E7D148007834
:1026A000002803DD112030700020E8E700F096FAE2
:1026B0008046FF2C03D1CC48006890F82040CB48DE
:1026C00050F8247037B9404600F08CFA432030703F
:1026D0000020D4E7012F06D1404600F083FA4320C2
:1026E00030700020CBE707F13C012846FFF7DFFC04
:1026F0008146404600F076FA002030704846BEE73A
:102700002DE9F04704460D4616464FF000090EB974
:10271000BDE8F0871F2C04DDFF2C02D02A2030708A
:10272000F6E715B90C203070F2E7AE4800780028C3
:1027300002DD12203070EBE700F050FA8146FF2CEA
:1027400003D1A948006890F82040A84850F8248098
:10275000B8F1000F05D1484600F044FA432030702C
:10276000D6E7B8F1010F05D1484600F03BFA432007
:102770003070CDE72846FFF7A8FC07460F2F05DD90
:10278000484600F02FFA41203070C1E7294608F191
:102790003C00FFF78CFC484600F024FA0020307023
:1027A000B6E770B5044600261F2C01DB2A2070BD59
:1027B00000F014FA06468D4850F8245025B93046EA
:1027C00000F010FA4620F2E7012D04D1304600F067
:1027D00009FA4320EBE7A87F10F0080F2AD0A87F62
:1027E00020F00800A877A87FF8B9A88BC8B92235CF
:1027F000A8787F49097808437D49087028787D4981
:10280000085C6978084315F822197A4A5054304612
:1028100000F0E8F978480078012809D1FFF708FBB3
:1028200006E0304600F0DEF902E0304600F0DAF96A
:102830000020BCE7304600F0D5F94420B7E72DE989
:10284000F04704460D464FF0000A1F2C04DDFF2C14
:1028500002D02A20BDE8F0870DB90920FAE7002050
:102860002860686000F0BAF98246FF2C03D15E4808
:10287000006890F820405D4850F8246026B9504622
:1028800000F0B0F94320E5E7012E04D1504600F0F6
:10289000A9F94320DEE7308A10F0010F04D1504639
:1028A00000F0A0F94520D5E74FF00008D6F80C90CD
:1028B000B768504600F096F901E008F1010802CF30
:1028C0000029FAD04FEA88002860A9EB08008000B0
:1028D00068600020BEE72DE9F04104464FF0000893
:1028E0001F2C02D14720BDE8F0811F2C03DBFF2CF9
:1028F00001D02A20F7E700F071F98046FF2C05D1BE
:102900003948006890F82040012508E03648006802
:1029100090F82000A04201D1012500E000253348B5
:1029200050F8246026B9404600F05CF94820DAE708
:10293000012E04D1404600F055F94320D3E796F824
:1029400022702C48C05D96F8231088432949C85549
:102950000846C05D30B996F82410254800788843B1
:1029600023490870B07F40F00800B077404600F07F
:1029700039F9012D01D1FFF75BFA0020B3E72DE90A
:10298000F04104460D4600271F2C04DDFF2C02D029
:102990002A20BDE8F0810DB90920FAE700F01EF900
:1029A0000746FF2C03D11048006890F820400F48DC
:1029B00050F8246026B9384600F014F92920E8E7D9
:1029C000012E04D1384600F00DF94320E1E74C22F6
:1029D00031462846FFF761FB384600F003F9002036
:1029E000D7E700003D0000204C000020A80A00208E
:1029F00041000020420000204600002070B504463F
:102A0000002670480078002800DD70BD002C23DD12
:102A100000F0E4F806466C48006890F822506B48D5
:102A2000405D6949096891F8231088436749485512
:102A30000846405D40B96448006890F82410644836
:102A400000788843624908705F4800688483304694
:102A500000F0C8F8FFF7ECF9D7E72DE9F047044696
:102A60000D4616461F4657480078002802DD5520BF
:102A7000BDE8F08724B91DB916B90FB95420F7E79E
:102A80003B2D01DD5120F3E73B2E01DD5220EFE726
:102A9000B7F57A7F01DB5320EAE74FF47A7107FB41
:102AA00001F0B0FBF1F14FF461606043C5EB05123A
:102AB00000EB8200304400EB4002C2EBC01001EB9F
:102AC000C0084FEA18491FFA88F84046FFF796FFFA
:102AD0000BE04FF40040FFF791FF4FF40040FFF789
:102AE0008DFFA9F101001FFA80F9B9F1000FF0DCA8
:102AF0000020BDE770B5044600261F2C01DB2A200C
:102B000070BD00F06BF80646324850F8245025B9E5
:102B1000304600F067F84320F2E7012D04D130463B
:102B200000F060F84320EBE7A88B20B9304600F0B6
:102B300059F85020E4E70020A883A87F10F0370F51
:102B400006D0A87F20F03700A8770120E87701E0C1
:102B50000020E877A87F10F0080F15D12235A8785B
:102B60001B49097808431A49087028781749085CF6
:102B70006978084315F82219144A5054304600F079
:102B800031F8FFF755F902E0304600F02BF800204D
:102B9000B6E770B5002500F021F805460E48046838
:102BA000284600F01FF8204670BD70B50446002589
:102BB00000F014F8054608480460284600F012F8B2
:102BC00070BD00003D0000204C00002042000020AD
:102BD00041000020A80A002060000020EFF31080D0
:102BE00072B6704780F3108870471D484FF0FF01A0
:102BF0000170002080F309881A48012101701A48E9
:102C00004FF08051016062B6FEE717484FF08051E7
:102C10000160704714484FF080510160704772B6F0
:102C2000EFF3098028B1203880E8F00F0F490968D8
:102C3000086000B50E4880475DF804EB0D480E496A
:102C40000A78027009480D490A680260106890E825
:102C5000F00F203080F309884EF0040E62B6704702
:102C600022ED00E04600002004ED00E04C000020D2
:102C7000272D00083F0000204000002054000020C5
:102C800070477047704770477047704770B504468B
:102C900010464FF080750560051F28462C606FF0C8
:102CA0000105061F304635604FF01235061F3046CD
:102CB00035604FF00335061F304635604FF0023562
:102CC000061F304635606D10061F30463560051F03
:102CD000284629604FF01135061F304635604FF009
:102CE0001035061F304635604FF00935061F304657
:102CF00035604FF00835061F304635604FF0073518
:102D0000061F304635604FF00635061F30463560E9
:102D10004FF00535061F304635604FF00435061F6D
:102D20003046356070BD70477047704780EA0102D9
:102D300010B502F00042400001D04B0001D100204C
:102D400010BD4FEA106101EB1361C0F35600C3F3ED
:102D5000560340F4000043F40003A0FB03307F3926
:102D60004FEA00401C0400D0401C50EA134001D43C
:102D70004000491EC3B20C0604EBD010401C4008B2
:102D8000802B01D120F00100002900DA002010433F
:102D900010BDF0B480EA010230F0004302F00042BE
:102DA00021F0004000D010B9F0BC00207047C0F303
:102DB000C755C3F31601C3F3C756731BC0F3160000
:102DC00040F400047E3341F400014FF08075002090
:102DD000A14201D3091B28436D084FEA4101F7D1F5
:102DE00051B1A14202D14FF0004105E002D24FF0B3
:102DF000010101E06FF00101F0BC00F022B8962360
:102E00000022114600F01DB820F00040C10DC0F3B3
:102E1000160040F400007F2901DA0020704796294F
:102E200003DCC1F19601C84070479639884070476D
:102E3000002905DA401CB1F1004F01D120F001005A
:102E4000704730B450EA01040BD130BC0020704709
:102E500001F0010545EA510141EAC07140085B1CDF
:102E600001E04FF08074A042F2D24FF4000404E07D
:102E7000400040EAD17049005B1EA042F8D300EB4D
:102E8000C350A0F5000030BC1044D1E7064C074DFC
:102E900006E0E06840F0010394E80700984710342A
:102EA000AC42F6D3FDF726F90C3000082C300008B0
:102EB000014A024900F013B813180008640000200A
:102EC00002E008C8121F08C1002AFAD170477047F3
:102ED000002001E001C1121F002AFBD170472DE93B
:102EE000F04104460F461646002503E03946B04738
:102EF0006D1C641C20780028F8D12846BDE8F081BC
:102F0000FC60DAF266B6BEE0FEF6000001000200E8
:102F100001000300010002000100040001000200A2
:102F20000100030001000200010005000100020091
:102F30000100030001000200010004000100020082
:102F40000100030001000200010006000100020070
:102F50000100030001000200010004000100020062
:102F60000100030001000200010005000100020051
:102F70000100030001000200010004000100020042
:102F8000010003000100020001000700010002002F
:102F90000100030001000200010004000100020022
:102FA0000100030001000200010005000100020011
:102FB0000100030001000200010004000100020002
:102FC00001000300010002000100060001000200F0
:102FD00001000300010002000100040001000200E2
:102FE00001000300010002000100050001000200D1
:102FF00001000300010002000100040001000200C2
:103000000100030001000200010000002C30000854
:103010000000002068000000C02E00089430000866
:103020006800002018140000D02E000800000000E6
:10303000010203040102030406070809020406084A
:1030400000A24A0400000000000000000102030486
:103050000607080900000000000000000000000052
:103060000000000000000000000000000000000060
:103070000000000000000000000000000000000050
:103080000000000000000000000000000000000040
:04309000000000003C
:0400000508000101ED
:00000001FF
